:020000040800F2
:100000001834002005010008595C0008CD010008E3
:10001000555C0008A13B0008716200080000000068
:1000200000000000000000000000000017010008B0
:10003000F93B00080000000057010008135D0008AC
:100040001F0100081F0100081F0100081F01000810
:100050001F0100081F0100081F0100081F01000800
:100060001F0100081F0100081F0100081F010008F0
:100070001F0100081F0100081F0100081F010008E0
:100080001F0100081F0100081F0100081F010008D0
:1000900061620008A53B00081F0100081F0100085D
:1000A0001F0100081F0100081F0100081F010008B0
:1000B0001F0100081F0100081F0100081F010008A0
:1000C0001F0100081F0100081F0100081F01000890
:1000D0001F0100081F010008516200081F010008ED
:1000E000FB3B00081F0100081F010008DFF810D0CB
:1000F00000F03EFD00480047EB0B0008AFF3008026
:10010000183400200648804706480047FEE7FEE70F
:10011000FEE7FEE7FEE7FEE7FEE7FEE7FEE7FEE7B7
:10012000315E0008ED000008EFF3108072B67047F2
:1001300080F310887047324A1368012B04D04FF0C7
:10014000010313602F4A10602F4A11602F484FF0AF
:10015000805101607047EFF3108272B62848016841
:1001600091B14FF0000101602648016829B1EFF319
:10017000098121E9F00F00680160234909680968D5
:10018000B1E8F00F81F3098882F310884EF0040E75
:1001900070471D4908601B494FF00000086018496E
:1001A0004FF0010008601A481A49D0F8002041EACF
:1001B0000201016015484FF0805101601648006847
:1001C000006880F3088861B662B670471EF0040FBD
:1001D0000CBFEFF30880EFF3098020E9F00F40F83F
:1001E00004ED1EF0040F0CBF80F3088880F309882B
:1001F00000B508F06DFC5DF804EB4EF0040E70479E
:1002000098020020900200209402002004ED00E0FB
:1002100020ED00E00000FFFF08ED00E0202A04DBF5
:10022000203A21FA02F00021704721FA02F3D0406F
:10023000C2F12002914008431946704740EA010389
:100240009B0703D009E008C9121F08C0042AFAD28C
:1002500003E011F8013B00F8013B521EF9D2704750
:10026000D2B201E000F8012B491EFBD270470022F8
:10027000F6E710B513460A4604461946FFF7F0FFA5
:10028000204610BD421E12F8013F002BFBD111F891
:10029000013B02F8013B002BF9D1704710B5044631
:1002A00004E00B7800F8013B03B1491C521EF8D260
:1002B000204610BD421C10F8011B0029FBD1801AFA
:1002C000704730B505460020034600E05B1C9342B2
:1002D00005D2EC5CC85C201A01D1002CF6D130BDEF
:1002E000F0B480EA0102D40F4200B2EB410F02D217
:1002F0000246084611464A0042D0C30DDDB2C1F3A2
:10030000C752AD1A202D35DAC1F3160141F40002AF
:1003100004B15242C5F1200602FA06F12A41104406
:10032000B3EBD05F23D0C4B1012DA0EBC35009DCE7
:10033000F0BC4FF0004202EAC352DBB200F500000D
:1003400000F05BBB400000F1807000EBC350A0F1F7
:10035000807040EAD170490009E0490841EAC07163
:10036000A0EBC35000F50000400800EBC350F0BC08
:1003700000F03ABB6142012202EB4101001BF6E7AB
:10038000F0BC704781F00041AAE780F00040A7E789
:1003900080EA010210B502F00043400022D04A007A
:1003A0001FD0010E01EB1261C0F35600C2F35602DA
:1003B00040F4000042F40002A0FB022000047F3958
:1003C000140400D0401C50EA124001D44000491EE1
:1003D000C2B20C0604EBD010401C4008802A02D0A8
:1003E00003E0002010BD20F00100002900DA002009
:1003F000184310BD30B480EA010202F0004530F02D
:10040000004221F0004013D090B1C30DD40DC2F3CF
:100410001601C0F31600E41A41F4000140F4000292
:100420007D34914201D3641C00E04900002C02DAC3
:1004300030BC002070474FF400000023914201D3EC
:10044000891A034340084FEA4101F7D151B1914263
:1004500002D14FF0004105E002D24FF0010101E06E
:100460006FF0010103EBC450284430BC00F0BCBA6B
:100470002DE9FE4F804681EA0300C00F0C46009034
:1004800021F0004123F00045B8EB0200A94105D25C
:100490004046214690461C460B46024623F000404B
:1004A000104347D0270DC7F30A00C3F30A51029047
:1004B000401A019040286BDAC3F3130040F4801B0C
:1004C0000098924620B10023D2EB030A63EB0B0B9A
:1004D00001985946C0F14002504600F064FA0646C1
:1004E0000D4650465946019A00F06CFA10EB080090
:1004F0006141002487EA115284EAE7731A4340D02D
:10050000009A62B3019A012A4FEA075215DC001BD8
:1005100061EB02014FF0004202EA0752CDE90042CE
:10052000001C41F5801132462B4600F0A3FA03B0BF
:10053000BDE8F08F40462146F9E7001B61EB020160
:10054000001C41F5801300185B412018A2F500172C
:1005500047EB030140EAD570B6196D4111E06D0813
:100560004FEA360645EAC0754FEA0752001B61EBB9
:100570000201001C41F5801149084FEA30000019C2
:10058000514132462B4603B0BDE8F04F00F063BA4C
:100590000098012240000023D0EB020263EBE073DD
:1005A000009821464FEAE074B8EB000061EB0401CB
:1005B000E9E783F000435BE781F0004158E72DE96C
:1005C000FE4F81EA030404F0004421F0004100944E
:1005D0004FF0000B23F0004350EA01045ED052EAD2
:1005E00003045BD0C3F30A54C1F30A552C44A4F2AC
:1005F000F3340194A0FB0254C1F3130141F48011C0
:10060000C3F3130343F4801301FB024400FB034EC6
:10061000840A970A44EA815447EA8357A4FB07688F
:1006200002958D0A05FB07854FEA932C04FB0C54B9
:100630002705029D4FEA065847EA1637B5EB08052D
:100640006EEB070C870E920E47EA811742EA83127F
:10065000A7FB0201B6EB0B0164EB00042B0D43EA90
:100660000C335E1844EB1C50DA465146E7FB02019E
:10067000C5F313044FEA0B3343EA14534FEA043231
:10068000019C43EA0603A4F10C040294009CCDE90A
:1006900000B400F0EFF903B0BDE8F08F0020014690
:1006A000F9E72DE9F04D81EA030404F0004B21F055
:1006B000004514464FF0000A23F0004150EA0502BD
:1006C00020D054EA01021DD0C5F30A570246C5F3F3
:1006D0001303C1F31300C1F30A5640F4801543F429
:1006E0008013A7EB0608101BD64608F2FD3873EB03
:1006F000050002D308F1010801E092185B41B8F14E
:10070000000F03DA00200146BDE8F08D00204FF411
:100710008011064684460EE0171B73EB050705D3D0
:10072000121B63EB050306434CEA010C49084FEA30
:10073000300092185B4150EA0107EDD152EA030004
:1007400012D082EA040083EA0501084305D0101B99
:10075000AB4106D20122002306E000224FF0004305
:1007600002E06FF0010253101AEB06004CEB085147
:1007700010EB0A0041EB0B01BDE8F04D00F06BB946
:10078000C10F80EAE0700844CA079623002100F0F8
:1007900034B996230022114600F02FB90EB5C10FCF
:1007A00080EAE0700844CA07002140F233438DE834
:1007B0000E000A460B4600F05DF903B000BD0EB511
:1007C00040F2334102910021CDE900110A460B4667
:1007D00000F050F903B000BD00F0004220F00040EE
:1007E000C10DC0F3160040F400007F2901DA00209B
:1007F0007047962903DCC1F19601C84001E09639A3
:100800008840002AF4D04042704720F00040C10DDB
:10081000C0F3160040F400007F2901DA0020704781
:10082000962903DCC1F19601C8407047963988408B
:10083000704700F0004230F000400AD0C10D01F5D1
:100840006071C0F3160042EA0151C208400711432B
:10085000704700200146704730B5041E71F1000456
:1008600004DB4FF00044404264EB0101141E73F1BD
:10087000000405DB1C464FF00043524263EB0403C7
:100880008B4208BF824230BD30B5041E71F10004B6
:1008900004DB4FF00044404264EB0101141E73F18D
:1008A000000405DB1C464FF00043524263EB040397
:1008B000994208BF904230BD01F0004330B421F0AE
:1008C000004150EA010206D00A0DA2F56072C1F3A0
:1008D0001301002A02DC30BC00207047440F44EAB8
:1008E000C104C100E01830BC00EBC25000F07CB87D
:1008F000002801DBC0F10040002901DBC1F100410B
:1009000081427047002801DBC0F10040002901DB73
:10091000C1F100418842704730B50B4601460020C6
:100920002022012409E021FA02F59D4205D303FAB1
:1009300002F5491B04FA02F52844151EA2F1010232
:10094000F1DC30BD2DE9F05F0546002092469B4664
:1009500088460646814640241BE0284641464746D5
:100960002246FFF75BFC53465A46C01A914110D30A
:1009700011461846224600F016F82D1A67EB0108BA
:100980004F4622460120002100F00DF817EB000928
:100990004E41201EA4F10104DFDC484631462A46C0
:1009A0004346BDE8F09F202A04DB203A00FA02F11A
:1009B000002070479140C2F1200320FA03F319434D
:1009C00090407047202A06DBCB17203A41FA02F00C
:1009D00043EAE07306E041FA02F3D040C2F120029C
:1009E00091400843194670470029A8BF7047401C32
:1009F000490008BF20F00100704710B4B0FA80FC35
:100A000000FA0CF050EA010404BF10BC704749B171
:100A1000CCF1200421FA04F411FA0CF118BF0121E1
:100A200021430843A3EB0C01CB1D4FEA00614FEAC1
:100A3000102042BF002010BC704700EBC350104490
:100A40000029A4BF10BC7047401C490008BF20F01B
:100A5000010010BC704710B5141E73F1000408DAD1
:100A6000401C41F1000192185B411A4301D120F072
:100A7000010010BD2DE9F04D92469B4611B1B1FA2F
:100A800081F202E0B0FA80F220329046FFF78BFF4D
:100A900004460F4640EA0A0041EA0B0153465A4613
:100AA000084313D0114653EA010019D0C8F140029F
:100AB0005046FFF7B3FB05460E46504659464246A0
:100AC000FFF771FF084305D0012004E020463946B6
:100AD000BDE8F08D0020054346EAE0762C4337431D
:100AE0000A986305E40AA0EB08000022FD0A44EA24
:100AF00047540A3002D500200146E9E701051019E4
:100B00006941DDE9084500196941BDE8F04DA2E7FA
:100B100070B521F0004303430CD0C1F30A55002403
:100B2000D5EB040564EB0403D617AD1AB34102DB21
:100B30000020014670BD201841EB025170BDC1F389
:100B40000A52C1F3130140F2FF3341F480119A427B
:100B500002DA00200146704740F233439A42A2F283
:100B6000334202DC5242FFF759BBFFF71CBF0000C3
:100B7000064C074D06E0E06840F0010394E80700EA
:100B800098471034AC42F6D3FFF7B4FAF0BA000835
:100B900010BB000870B58C1810F8015B15F0070346
:100BA00001D110F8013B2A1106D110F8012B03E006
:100BB00010F8016B01F8016B5B1EF9D12B0705D40E
:100BC0000023521E0DD401F8013BFAE710F8013B57
:100BD000CB1A921C03E013F8015B01F8015B521E73
:100BE000F9D5A142D8D3002070BD10B50AF032F873
:100BF000002010BD2DE9F84F3F4988683F49FFF7B5
:100C0000C7FB0090FFF7E8FDB0F1000B01DB594690
:100C100001E0CBF100010846FFF7C0FD804600224D
:100C2000374BFFF73EFD06460022364BFFF739FDF6
:100C30000446FFF741FE824633480078032815D169
:100C4000324A51682C4AD068FFF75CFE04D84FF056
:100C50007E502F49C86009E02C4AD168264AD068E6
:100C6000FFF746FE02D800202949C86026480078D0
:100C7000012818D12649C86A5146FFF731FB0446BE
:100C80002348816A2046FFF733FE07D82049C86A07
:100C90005146FFF725FB1E49C86219E01C48806ACF
:100CA0001B49C86214E018480078022810D118497E
:100CB000C86A5146FFF726FE07D81549C86A51464B
:100CC000FFF760FB1249C86202E000201049C862C9
:100CD0000F4A916AD06AFFF78DFB0D49C860C8685A
:100CE0004FF07E51FFF70EFE03D24FF07E500849C1
:100CF000C860BDE8F88F00006803002000007A4457
:100D000000408F400020AC40A301002024000020C0
:100D10007800002010B500F041F910BD2DE9F04732
:100D20001249C8681249FFF733FB8246FFF76DFD91
:100D30001FFA80F9484600F0DFF80446FFF73FFD50
:100D4000074600220B4BFFF7ACFC0546FFF7B4FD4E
:100D50000949C8600846406A88620A46D168906AB4
:100D6000FFF716FB0449C862BDE8F087680300205E
:100D700000007A4400408F407800002070B5204A7F
:100D8000D168204A1279521E1D4B0C3353F83200A1
:100D9000FFF7F8FA1C4948610024002008610BE0C5
:100DA000174A343252F82410174A1069FFF798FA9C
:100DB00015490861601CC4B212480079A042EFDCFA
:100DC00010490879FFF7E5FC05460F4908692946EF
:100DD000FFF710FB0C490861094A91685068FFF75A
:100DE000D7FA0949886107480079401E04490C3147
:100DF00051F830000449C8610148C068086270BDFC
:100E000068030020A3010020780000201CB51920F1
:100E100015214FF480730022CDE900100A490BA080
:100E200008F093FF044654B900BF0BA007F0D0FFB1
:100E30000EA007F0CDFF12A007F0CAFF00BF2046AA
:100E400009F02EF91CBD0000810F0008616E616C75
:100E500079736973000000001B5B33316D5B452FB4
:100E6000616E616C797369735D2000004372656126
:100E70007465205461736B204661696C000000004A
:100E80001B5B306D0A0000002DE9F0471548007823
:100E9000042824D141F2883009F06CF81249C8685E
:100EA0001249FFF775FA8246FFF7AFFC1FFA80F987
:100EB000484600F021F80446FFF781FC074600226F
:100EC0000B4BFFF7EEFB0546FFF7F6FC0949C86040
:100ED0000A46D168906AFFF75BFA0649C862BDE826
:100EE000F0870000A30100206803002000007A447E
:100EF00000408F407800002070B5044600261C4852
:100F00000088A04200DB31E01948B0F8C800A042D8
:100F100002DC4FF47A7629E023466422002114484B
:100F200007F0B2FB85B2124830F81500A04206D196
:100F300005EB85004FF6FF7101EA400615E00C480D
:100F400030F815100246681C32F81000081A1146D5
:100F500031F81510091B01EB8101490091FBF0F0FC
:100F600005EB850100EB410086B200BF304670BD45
:100F7000A800002010B5FFF787FFFFF73BFE10BD6C
:100F8000FFF7CCFE09E0FFF7F9FEFFF7C3FEFFF71E
:100F9000F1FF4FF47A7008F0EDFFF4E72DE9F0412E
:100FA000394908683949FFF7F3F90746FFF714FC98
:100FB00004B23548806C08B9BDE8F0813448B0F916
:100FC0000000844209DD3248B0F90000201A0A28E6
:100FD00002DB2F4804800AE0EEE72D48B0F900005C
:100FE000001B0A2802DB2A48048000E0E4E7FA2C10
:100FF00001DB01251CE0642C03DBFA2C01DA02255D
:1010000016E0002C03DB642C01DA032510E014F158
:10101000C80F04DB14F10A0F01DA042508E014F507
:10102000967F04DB14F1C80F01DA052500E00625E0
:10103000A4F1FA0068430A2190FBF1F000F57A7000
:1010400086B240F21A40864201DD064604E040F2D4
:10105000EE20864200DA06463046FFF79AFB8046CD
:101060000C48416A4046FFF793F907460A49FFF7E3
:10107000C1F9084988620A46D168906AFFF788F981
:101080000449C86200BF97E76803002000002041C0
:10109000720100207800002000007A4438B5044630
:1010A0004FF47A7104FB01F009F036F900906A46BA
:1010B00000210A48006809F0DFF90848006809F0D3
:1010C00007FB00BF06A007F083FE0AA007F080FE22
:1010D0000DA007F07DFE00BF38BD00009401002088
:1010E0001B5B33326D5B492F656E657267795D20DE
:1010F0000000000042616C616E63652054696D659B
:1011000072205374617274001B5B306D0A00000022
:1011100070B50446012143F6FF7000F035FC002055
:101120000C4988830C49087041F2883009F0F4F8C2
:10113000054609F00BF928440849086000BF08A0DB
:1011400007F046FE0BA007F043FE0FA007F040FE9D
:1011500000BF70BD74010020980100209C01002098
:101160001B5B33326D5B492F656E657267795D205D
:101170000000000042616C616E63652054696D651A
:101180007220456E640000001B5B306D0A00000099
:1011900010B5334A5169334A9068FFF7B3FB20D248
:1011A00031480068C83030490860084600683C2172
:1011B000B0FBF1F02A4991F8221088424ED3012069
:1011C00000F0EAFB02202649A1F8440000BF27A056
:1011D00007F0FEFD2AA007F0FBFD30A007F0F8FDA8
:1011E0003CE02048806C00B910BD1D4A516A1D4A80
:1011F000926C521E1B4B53F82200FFF783FB11D257
:10120000012000F0C9FB04201549A1F8440000BFEB
:1012100016A007F0DDFD23A007F0DAFD1FA007F000
:10122000D7FD1BE00E4A516B0E4A1068FFF760FBBA
:1012300011D2012000F0B0FB08200949A1F84400B8
:1012400000BF0AA007F0C4FD1DA007F0C1FD13A058
:1012500007F0BEFD02E000200349086000BFC3E7BD
:1012600024000020680300206C0000201B5B333347
:101270006D5B572F70726F746563745D20000000A2
:101280004368617267653A4F43432050726F7465DB
:101290006374205469676765720000001B5B306DE2
:1012A0000A0000004368617267653A4F544320505A
:1012B000726F74656374205469676765720000001B
:1012C0004368617267653A4C54432050726F74658D
:1012D000637420546967676572000000012001494A
:1012E000C8707047A3010020012001494870704771
:1012F000A30100200120014988707047A30100204C
:1013000010B5012000F088FE10BD000010B502F0FD
:10131000F7FB50B100BF0BA007F05AFD0DA007F07E
:1013200057FD10A007F054FD0AE000BF05A007F02C
:101330004FFD0EA007F04CFD0AA007F049FD00BFCD
:1013400010BD00001B5B33326D5B492F636D645D24
:10135000200000004C6F616420446574656374650F
:10136000640000001B5B306D0A0000004E6F204CD3
:101370006F616420576173204465746563746564AC
:101380000000000000200149C8707047A301002040
:101390000020014948707047A30100200020014946
:1013A00088707047A301002010B5002000F034FEC3
:1013B00010BD000010B51E48806C00B910BD1D4A5C
:1013C000D16A1B4A926C521E194B53F82200FFF748
:1013D00099FA11D2012000F0E6FA80201549A1F80F
:1013E000440000BF14A007F0F3FC18A007F0F0FCC5
:1013F0001EA007F0EDFC19E00E4AD16B0C4A1068F4
:10140000FFF776FA12D2012000F0CDFA4FF4807087
:101410000849A1F8440000BF07A007F0D9FC15A0B7
:1014200007F0D6FC11A007F0D3FC00BF00BFC5E752
:1014300068030020240000201B5B33336D5B572FB3
:1014400070726F746563745D20000000446973639B
:1014500068617267653A4F54442050726F746563D7
:101460007420546967676572000000001B5B306D73
:101470000A0000004469736368617267653A4C54FE
:10148000442050726F746563742054696767657295
:101490000000000010B508F059FF1E490968884295
:1014A00001D8002010BD1C48007808B10020F9E7E1
:1014B0001A48C07818B1002019498877F2E7174810
:1014C0000078032807D015480078012803D00020B1
:1014D00013498877E6E7124A1169104A1279521EB9
:1014E000104B53F83200FFF703FA03D200200C49E7
:1014F0008877D7E70A4A51690B4A5069FFF7F8F92C
:1015000003D2002006498877CCE701200449887778
:1015100000BFC7E79C01002098010020A301002024
:101520007401002074030020780000202DE9F041B0
:101530003548C76801255EE034480079411B3248D0
:101540000C3050F8316039463046FEF71BFF044638
:101550002F4841692046FFF7D5F949D24FF00008DE
:101560002A480079411B28480C3000EBC10004795F
:101570003CB92748007F00F0020008BB4FF001088B
:101580001EE022480179601C814209D12048808BED
:10159000611E01228A40104090B94FF001080FE00F
:1015A0001B48808B611E01228A40104040B91848B8
:1015B000808B611C01228A40104008B94FF001085D
:1015C000B8F1010F13D100BF12A007F001FC611C9C
:1015D00015A007F0FDFB18A007F0FAFB00BF0C48B0
:1015E000818B0120A040014388B20949888300E033
:1015F00006E0681CC5B205480079401CA8429BDC87
:1016000000BFBDE8F081000068030020A3010020B6
:10161000740100201B5B33326D5B492F656E657270
:1016200067795D200000000042616C616E63652097
:1016300043656C6C3A2564001B5B306D0A0000004A
:1016400010B5FFF727FF18B1FFF770FF00F002F8A1
:1016500010BD000010B50D48808BB0B10B49888BD0
:10166000002100F091F909498869FFF717FD012071
:101670000749087000BF07A007F0AAFB0AA007F0FF
:10168000A7FB0DA007F0A4FB00BF10BD7401002054
:10169000980100201B5B33326D5B492F656E6572CC
:1016A00067795D200000000042616C616E63652017
:1016B00053746172740000001B5B306D0A000000FF
:1016C00010B554480078012804D0022818D0032807
:1016D0006DD12BE0504A1168504AD068FFF712F9DB
:1016E0000DD8012000F058F900BF4DA007F070FBA5
:1016F00050A007F06DFB52A007F06AFB00BF57E057
:10170000454A9168454AD068FFF7F2F80DD80120A4
:1017100000F049F900BF42A007F05AFB4AA007F0C9
:1017200057FB47A007F054FB00BF41E03948407821
:10173000F0B9494890F8440000F00F00C0B93648AD
:10174000807F012814D0344A5168344AD068FFF7AA
:10175000CFF80DD2002000F01FF900BF30A007F035
:1017600037FB3EA007F034FB35A007F031FB00BF8C
:1017700028488078D0B93848B0F8440000F4F870B0
:10178000A0B9254AD168254AD068FFF7BBF80DD229
:10179000002000F008F900BF21A007F019FB33A0DA
:1017A00007F016FB26A007F013FB00BF00E000BF08
:1017B00000BF1848407831490978884211D015484F
:1017C0004078012802D100F0E7F806E011480078DF
:1017D000042802D1002000F0DFF80E4840782749A5
:1017E00008700C48807826490978884211D0094849
:1017F0008078012802D100F0D6F806E0054800788C
:10180000042802D1002000F0CEF8024880781C495C
:10181000087010BDA3010020740100207800002092
:101820001B5B33326D5B492F656E657267795D2096
:101830000000000053746F70204368617267650098
:101840001B5B306D0A00000053746F702044697395
:101850006368617267650000240000205374617240
:101860007420436861726765000000005374617200
:10187000742044697363686172676500A001002089
:10188000A10100201CB5192016214FF4007300227D
:10189000CDE90010164917A008F057FA044654B9CC
:1018A00000BF16A007F094FA19A007F091FA1DA046
:1018B00007F08EFA00BF204608F0F2FB0420142344
:1018C00000221A4900901AA008F03EFE1A4908604A
:1018D0000846006850B900BF08A007F079FA17A0C1
:1018E00007F076FA0FA007F073FA00BF1CBD0000E6
:1018F00051190008656E6572677900001B5B333112
:101900006D5B452F656E657267795D200000000094
:10191000437265617465205461736B204661696C24
:10192000000000001B5B306D0A0000001111000870
:1019300062616C616E6365009401002043726561B1
:1019400074652054696D6572204661696C00000001
:101950000A4840780A4908700848807809490870A0
:101960004FF4FA7008F006FB06E0FFF769FEFFF798
:10197000A7FEC82008F0FEFAF7E70000A301002048
:10198000A0010020A101002070B504460D462946A3
:10199000204601F04DF970BD10B5044621460120E6
:1019A00001F0FCF910BD10B504462146022001F0FB
:1019B000F5F910BD70B54D49C8680021FEF798FFD4
:1019C00014D1012240214A4802F0BCFE01228021AC
:1019D000474802F0B7FE01221102454802F0B2FE6C
:1019E00001225102424802F0ADFE7EE03F49C86844
:1019F000FEF71FFF044600223E4BFEF72DFF15D8D1
:101A0000012240213A4802F09DFE012280213848FF
:101A100002F098FE01221102354802F093FE0022E6
:101A20004FF40071324802F08DFE5EE02F49C86825
:101A3000FEF7FFFE044600222F4BFEF70DFF16D8DF
:101A4000012240212A4802F07DFE012280212848FF
:101A500002F078FE00224FF48071254802F072FEF9
:101A600000224FF40071224802F06CFE3DE01F4955
:101A7000C868FEF7DEFE04460022204BFEF7ECFEAF
:101A800016D8012240211A4802F05CFE0022802173
:101A9000174802F057FE00224FF48071144802F0FC
:101AA00051FE00224FF40071114802F04BFE1CE081
:101AB0000E49C8684FF07E51FEF71AFF15D8002274
:101AC00040210B4802F03EFE00228021084802F02F
:101AD00039FE00224FF48071054802F033FE0022E7
:101AE0004FF40071024802F02DFE70BD7800002016
:101AF000000C01400000D03F0000E03F0000E83F44
:101B00001CB5192000904FF4007300220A4901907F
:101B10000AA008F01AF9044654B900BF09A007F05A
:101B200057F90CA007F054F90FA007F051F900BFC6
:101B3000204608F0B5FA1CBD35200008696E666FB6
:101B4000000000001B5B33316D5B452F696E666FD3
:101B50005D200000437265617465205461736B20E1
:101B60004661696C000000001B5B306D0A000000DC
:101B7000F0B593B000BFADA007F02AF9AFA007F011
:101B800027F9BEA007F024F900BFBE49886AFEF716
:101B900050FE05462A460B46BBA103A804F06AFB8B
:101BA00000BFA2A007F014F903A9C0A007F010F924
:101BB000B2A007F00DF900BFB249C86AFEF739FEBE
:101BC00005462A460B46BAA103A804F053FB00BF02
:101BD00096A007F0FDF803A9B4A007F0F9F8A7A0B4
:101BE00007F0F6F800BFBBA007F0F2F8A549C868F7
:101BF000B949FEF7CDFB0746FEF71BFE05462A4610
:101C00000B46B6A103A804F035FB00BF87A007F080
:101C1000DFF803A9A5A007F0DBF898A007F0D8F833
:101C200000BFACA007F0D4F89649C869FEF701FEE2
:101C300005462A460B46AFA103A804F01BFB00BFD4
:101C40007AA007F0C5F803A998A007F0C1F88BA007
:101C500007F0BEF800BF8B49086AFEF7EAFD0546AB
:101C60002A460B46AAA103A804F004FB00BF6FA0FC
:101C700007F0AEF803A98DA007F0AAF87FA007F03F
:101C8000A7F800BF7F494869FEF7D3FD05462A46FD
:101C90000B46A6A103A804F0EDFA00BF63A007F06D
:101CA00097F803A981A007F093F874A007F090F8C3
:101CB00000BF74490869FEF7BCFD05462A460B467D
:101CC000A4A103A804F0D6FA00BF58A007F080F83A
:101CD00003A976A007F07CF868A007F079F800BFA8
:101CE00068498869FEF7A5FD05462A460B46A1A16D
:101CF00003A804F0BFFA00BF4CA007F069F803A9DD
:101D00006AA007F065F85DA007F062F800BF71A057
:101D100007F05EF89E494868FEF78BFD05462A46A7
:101D20000B469CA103A804F0A5FA00BF3FA007F052
:101D30004FF803A95DA007F04BF850A007F048F852
:101D400000BF93498868FEF774FD05462A460B4696
:101D500097A103A804F08EFA00BF34A007F038F86A
:101D600003A952A007F034F844A007F031F800BFEF
:101D7000002419E0864951F82400FEF75AFD621C40
:101D8000CDE9000191A103A804F074FA00BF27A0D7
:101D900007F01EF803A945A007F01AF837A007F0CE
:101DA00017F800BF601CC4B27948806CA042E1D82B
:101DB00048A007F00DF8002427E07549343151F8A8
:101DC0002400FEF736FD05460E468648808B01212D
:101DD000A1400840002801DD83A000E032A0621C81
:101DE00083A1CDE90056029003A804F043FA00BF96
:101DF0000EA006F0EDFF03A92CA006F0E9FF1FA03E
:101E000006F0E6FF00BF601CC4B281480079A04222
:101E1000D3DC00BF05A006F0DBFF7E4806F0D8FF4C
:101E200016A006F0D5FF00BF13B0F0BD1B5B306DF0
:101E30005B442F696E666F5D200000002F2A2A2AFE
:101E40002A2A2A2A2A2A2A2A2A2A2A2A2A2A2A2AF2
:101E50002A2A2A2A2A2A2A2A2A2A2A2A2A2A2A2AE2
:101E60002A2A2A2A2A2A2A2A2A2A2A2A2A2A2A2AD2
:101E70002A2A2A2A2A2A2A2A2A2A2F001B5B306D7C
:101E80000A000000780000204261747465727920B5
:101E90005265616C204361706163697479203D20F3
:101EA00025302E3366412F480000000025730000C6
:101EB000426174746572792052656D61696E204368
:101EC00061706163697479203D2025302E3366414D
:101ED0002F4800000D0A00000000C84242617474DF
:101EE00065727920534F43203D2025302E316625E1
:101EF0002500000043656C6C204D617820566F6CA6
:101F000074616765203D2025302E33665600000041
:101F100043656C6C204D696E20566F6C746167650B
:101F2000203D2025302E33665600000043656C6C42
:101F3000204D617820566F6C746167652044696636
:101F4000666572656E6365203D2025302E336656CA
:101F50000000000043656C6C204176657261676526
:101F600020566F6C74616765203D2025302E3366E6
:101F70005600000042617474657279205265616C8C
:101F800020506F776572203D2025302E3366570034
:101F9000680300204261747465727920566F6C7416
:101FA000616765203D2025302E3366560000000015
:101FB000426174746572792043757272656E742023
:101FC0003D2025302E3366410000000054656D70C1
:101FD0006174757265202564203D2025302E3166A0
:101FE00000000000740100202D2D2D3E0000000097
:101FF00043656C6C252D326420566F6C7461676587
:10200000203D20252D352E336656202573000000F7
:10201000A301002078B3000818B90121044A117007
:1020200004E0012802D10021014A1170704700002C
:10203000A20100200BE006480078012801D1FFF73B
:1020400097FDFFF7B7FC44F6206007F093FFF2E737
:10205000A201002010B52F480088FA302D490880D1
:102060002D480078012809D108460088FA2805DBA8
:1020700001F01AFD00202749088005E02648007875
:1020800010B900202349088024480088FA302349E9
:10209000088023480078012809D108460088FA28DA
:1020A00005DB01F0C1FC00201C49088005E01C484C
:1020B000007810B90020194908801A480088FA30C1
:1020C000184908801848007801280ED10846018870
:1020D0000088401C134A1080B1F5FA6F05DB01F04F
:1020E000AFFC00200F49088005E00F48007810B9C8
:1020F00000200C4908800D480078012808D10C48C0
:102100000078012804D101F083FC00200749087001
:1021100010BD000016000020110000201800002053
:10212000120000201A0000201300002010000020E0
:1021300014000020012001490870704710000020A1
:102140001CB5192013214FF400730022CDE90010B3
:102150000A490BA007F0F9FD044654B900BF0AA0D4
:1021600006F036FE0DA006F033FE11A006F030FE9C
:1021700000BF204607F094FF1CBD0000C1230008EB
:102180006D6F6E69746F72001B5B33316D5B452F31
:102190006D6F6E69746F725D20000000437265613F
:1021A0007465205461736B204661696C0000000007
:1021B0001B5B306D0A00000070B55A480078042897
:1021C00022D159498868FEF734FB0446574A584BD8
:1021D000FEF75AFB09D954498868FEF72AFB0446E2
:1021E000524A544BFEF738FB0DD803204D49087076
:1021F00000BF51A006F0ECFD54A006F0E9FD55A08B
:1022000006F0E6FD00BF70BD47498868FEF711FB88
:102210000446464A464BFEF71FFB3DD242498868BA
:10222000FEF707FB0446414A424BFEF72DFB33D233
:1022300003203C490870494800684949884214D342
:102240004848807F012815D00020444908600420B8
:102250003449087000BF38A006F0BAFD42A006F06D
:10226000B7FD3CA006F0B4FD04E03C480068FA303D
:102270003A49086041480078032851D003203F497B
:10228000087000BF2CA006F0A3FD3DA006F0A0FD45
:1022900030A006F09DFD43E023498868FEF7C9FAA7
:1022A0000446224A224BFEF7EFFA17D800202B49AA
:1022B000086001201B4908703048007801282FD0A1
:1022C00001202E49087000BF1BA006F081FD31A03F
:1022D00006F07EFD1FA006F07BFD21E01249886814
:1022E000FEF7A7FA0446114A124BFEF7B5FA17D8C3
:1022F00000201A49086002200A4908701F48007827
:1023000002280DD002201D49087000BF0AA006F067
:102310005FFD25A006F05CFD0EA006F059FD00BF94
:1023200000BF70E7A3010020680300207B14AE47C4
:10233000E17A943FE17A94BF1B5B33326D5B492FA6
:102340006D6F6E69746F725D2000000057616B6580
:10235000205570001B5B306D0A000000200000203B
:1023600080EE360074010020456E74727920536C43
:10237000656570204D6F6465000000001C00002042
:10238000456E747279205374616E646279204D6F6A
:1023900064650000456E74727920436861726765F8
:1023A000204D6F6465000000456E747279204469A9
:1023B00073636861726765204D6F6465000000009B
:1023C00006E0FFF747FEFFF7F7FEFA2007F0D2FD21
:1023D000F7E7000010B500BF05A006F0F9FC09A062
:1023E00006F0F6FC0CA006F0F3FC00BF10BD0000E8
:1023F0001B5B33336D5B572F70726F746563745D55
:1024000020000000424D535F50726F746563744842
:1024100077446576696365001B5B306D0A000000D8
:1024200010B50E4890F8440000F02000A8B9012033
:10243000FFF7B9FA0948B0F8440040F02000074916
:10244000A1F8440000BF06A006F0C2FC09A006F0F7
:10245000BFFC10A006F0BCFC00BF10BD2400002093
:102460001B5B33336D5B572F70726F746563745DE4
:10247000200000004469736368617267653A4F43E6
:10248000442050726F746563742054696767657285
:10249000000000001B5B306D0A00000010B50E4804
:1024A00090F8440000F00100A8B90120FFF774FA89
:1024B0000948B0F8440040F001000749A1F8440081
:1024C00000BF06A006F084FC09A006F081FC0FA066
:1024D00006F07EFC00BF10BD240000201B5B3333E0
:1024E0006D5B572F70726F746563745D2000000020
:1024F0004368617267653A4F562050726F74656326
:102500007420546967676572000000001B5B306DC2
:102510000A00000010B500BF05A006F059FC09A094
:1025200006F056FC0CA006F053FC00BF10BD0000E6
:102530001B5B33336D5B572F70726F746563745D13
:1025400020000000424D535F50726F746563744801
:10255000774F7672640000001B5B306D0A0000004C
:1025600010B50E4890F8440000F04000A8B90120D2
:10257000FFF719FA0948B0F8440040F04000074955
:10258000A1F8440000BF06A006F022FC09A006F056
:102590001FFC10A006F01CFC00BF10BD2400002092
:1025A0001B5B33336D5B572F70726F746563745DA3
:1025B000200000004469736368617267653A5343A1
:1025C000442050726F746563742054696767657244
:1025D000000000001B5B306D0A00000010B50E48C3
:1025E00090F8440000F01000A8B90120FFF7DBF9D3
:1025F0000948B0F8440040F010000749A1F8440031
:1026000000BF06A006F0E4FB09A006F0E1FB0FA066
:1026100006F0DEFB00BF10BD240000201B5B33333F
:102620006D5B572F70726F746563745D20000000DE
:102630004469736368617267653A55562050726FDA
:102640007465637420546967676572001B5B306D45
:102650000A0000001CB5192014214FF480730022D9
:10266000CDE900100A490BA007F06FFB044654B9EE
:1026700000BF0AA006F0ACFB0DA006F0A9FB11A05C
:1026800006F0A6FB00BF204607F00AFD1CBD0000B7
:10269000912A000870726F74656374001B5B33319C
:1026A0006D5B452F70726F746563745D2000000070
:1026B000437265617465205461736B204661696C77
:1026C000000000001B5B306D0A00000010B5B2482E
:1026D000B0F8440000287DD0AF4890F8440000F0E6
:1026E0000100C8B1AC4A9168AC4AD06AFEF700F963
:1026F00011D2A948B0F8440020F00100A649A1F881
:10270000440000BFA6A006F063FBAAA006F060FB91
:10271000ADA006F05DFB78E09F4890F8440000F023
:102720000400E8B19C4A916A9C4A1068FEF7E0F800
:102730006BD29948B0F8440020F004009649A1F803
:102740004400A3494878FFF727F900BF94A006F09A
:102750003FFBA0A006F03CFB9BA006F039FB54E039
:102760008D4890F8440000F00800E8B18A4A916B67
:102770008A4A1068FEF7C6F847D28748B0F8440086
:1027800020F008008449A1F8440091494878FFF7F7
:1027900003F900BF82A006F01BFB93A006F018FB14
:1027A00089A006F015FB30E07B4890F8440000F06B
:1027B000020050B391480068C8309049086008464C
:1027C00000683C21B0FBF1F0734991F82310884276
:1027D0001BD300E038E00020884908606E48B0F85C
:1027E000440020F002006C49A1F844007849487880
:1027F000FFF7D2F800BF6AA006F0EAFA80A006F060
:10280000E7FA71A006F0E4FA00BF634890F84400CC
:1028100000F01000C8B1604A1169604AD068FEF744
:1028200071F811D25C48B0F8440020F010005A4909
:10283000A1F8440000BF5AA006F0CAFA75A006F03D
:10284000C7FA61A006F0C4FAA5E0534890F8440026
:1028500000F08000E8B1504A116B504A1068FEF752
:1028600047F8F1D24C48B0F8440020F080004A49C3
:10287000A1F8440056498878FFF795F800BF48A0B2
:1028800006F0A6FA69A006F0A3FA4FA006F0A0FA97
:1028900081E04148B0F8440000F48070E8B13E4A5D
:1028A000116C3E4A1068FEF72DF874D23A48B0F821
:1028B000440020F480703849A1F8440044498878E5
:1028C000FFF771F800BF36A006F082FA5DA006F0AF
:1028D0007FFA3DA006F07CFA5DE02F4890F84400B6
:1028E00000F0200040B35D480068C8305B490860D4
:1028F000084600683C21B0FBF1F0274991F8201010
:10290000884248D30020554908602348B0F8440065
:1029100020F020002049A1F844002D498878FFF7D5
:1029200042F800BF1EA006F053FA4DA006F050FA80
:1029300025A006F04DFA2EE0174890F8440000F06C
:10294000400040B345480068C83044490860084624
:1029500000683C21B0FBF1F00F4991F8211088424A
:1029600019D300203D4908600B48B0F8440020F01E
:1029700040000949A1F8440015498878FFF713F889
:1029800000BF07A006F024FA3BA006F021FA0EA033
:1029900006F01EFA00BF10BD2400002068030020CE
:1029A0001B5B33326D5B492F70726F746563745DAE
:1029B000200000004368617267653A4F56205265F7
:1029C0006C696576650000001B5B306D0A000000D5
:1029D000A30100204368617267653A4F5443205257
:1029E000656C6965766500004368617267653A4C9D
:1029F00054432052656C69657665000070000020C4
:102A00004368617267653A4F43432052656C69655C
:102A1000766500004469736368617267653A55566C
:102A20002052656C69657665000000004469736337
:102A300068617267653A4F54442052656C696576E7
:102A4000650000004469736368617267653A4C54BD
:102A5000442052656C6965766500000074000020B2
:102A60004469736368617267653A4F4344205265F5
:102A70006C6965766500000044697363686172671C
:102A8000653A5343442052656C69657665000000E1
:102A900006E000F007F8FFF719FEC82007F06AFA11
:102AA000F7E7000010B50B480078012806D002288F
:102AB00007D0032808D0042808D106E0FEF768FBF9
:102AC00005E0FEF777FC02E001E000E000BF00BF98
:102AD00010BD0000A301002000B589B01848009087
:102AE000184801901848029018480390184806901A
:102AF000184805901848049001208DF81C00052105
:102B00008DF81D1001218DF81E108DF81F1040F654
:102B10001C41ADF8201041F26801ADF8221002F01E
:102B200017FE684600F0C2F9FFF70AFBFFF792FDB7
:102B3000FEF76CF9FEF7A6FEFEF7E2FF09B000BD56
:102B400021240008612500089D240008DD250008D7
:102B500035210008D52300081525000838B50020C8
:102B600000900024694600F017FB9DF8000000F07B
:102B7000010038B144F001042C48006810B12B4921
:102B8000086880479DF8000000F0020038B144F06A
:102B900002042648406810B12449486880479DF8DF
:102BA000000000F0040038B144F004041F488068BD
:102BB00010B11E49886880479DF8000000F00800A9
:102BC00038B144F008041948C06810B11749C86802
:102BD00080479DF8000000F0100038B144F0100468
:102BE0001248006910B11149086980479DF800003A
:102BF00000F0200038B144F020040C48406910B1C6
:102C00000A49486980479DF8000000F0800038B10B
:102C100044F080040548806910B104498869804700
:102C20002146002000F098FE38BD0000B4030020CB
:102C300070B504460D46ADB91948007804F01F017F
:102C400008431749087008464078C4F34411084304
:102C50001349487008468078C4F38421084310491A
:102C6000887016E0012D14D10D48007804F01F0182
:102C700088430B49087008464078C4F344118843E0
:102C80000749487008468078C4F384218843044982
:102C9000887003220249012000F0E4FD70BD0000AD
:102CA000DC0100201CB5182027490871402048711C
:102CB0001920C8720822091D042000F0D3FD082243
:102CC0006946042000F0A0F99DF8000000F07F00A4
:102CD0001D490979884229D19DF801001A4949798D
:102CE000884223D19DF802001749897988421DD175
:102CF0009DF803001449C979884217D19DF8040052
:102D00001149097A884211D19DF805000E49497A86
:102D100088420BD19DF806000B49897A884205D17B
:102D20009DF807000849C97A88420CD000BF07A067
:102D300006F04EF80AA006F04BF816A006F048F888
:102D400000BF00BFFEE71CBDD00300201B5B33317A
:102D50006D5B452F627137363932305D20000000DF
:102D60004251373639583020636F6E66696720727A
:102D700065676973746572206661696C2C506C6557
:102D800061736520726573657420424D5320626FD4
:102D9000617264001B5B306D0A00000070B5044670
:102DA0000D462DB90848407920430749487104E091
:102DB00005484079A04304494871034841790520FA
:102DC00000F0CAFD70BD0000D003002010B5002146
:102DD000042000F0C1FD0121042000F0BDFD02210E
:102DE000042000F0B9FD10BD2DE9F0412A49502022
:102DF00000F0D2F92849891C592000F0CDF9264964
:102E0000491C512000F0C8F92349343991F8341095
:102E100001F00C0140F26D1202EB41011E4A343AFE
:102E200092F8362001EB5210FDF7B8FC064600225E
:102E30001A4BFDF736FC0446FDF73EFD18490860C5
:102E40001548343890F8340000F00C0040F26D1151
:102E500001EB40001049343991F8361000EB511065
:102E6000104908800C48343890F8350000F0800094
:102E700048B10948343890F835004042404240B2E9
:102E80000949087006E00448343890F8350040B22B
:102E900005490870BDE8F0810404002000408F401F
:102EA000D0010020D4010020D601002070B50446D6
:102EB000FFF78CFF4FF4FA7007F05CF800F0B6FCF7
:102EC000FFF792FF1C2221463148FDF7B7F9314840
:102ED000807920F00700801C2E4988710846C0794F
:102EE00020F00F00401CC871217F2A48807961F3CF
:102EF000C40028498871617F2648C07961F30610B3
:102F00002449C871A17F2348007A61F387102149C1
:102F10000872E17F1F48007A61F305101D490872AD
:102F2000618C1D4A92F90020881AFDF729FC06469B
:102F30001A4801683046FDF75DFA0546FDF765FC65
:102F400000F6F870C0F3071012494872218C124A3B
:102F500092F90020881AFDF713FC06460F48016815
:102F60003046FDF747FA0546FDF74FFCC0F3071062
:102F700008498872FFF796FE00BF09A005F028FFF8
:102F80000CA005F025FF13A005F022FF00BF70BDC7
:102F9000B4030020D0030020D6010020D00100207F
:102FA0001B5B33326D5B492F627137363932305DCE
:102FB000200000004251373639583020496E69747C
:102FC00069616C697A65207375636365737366758F
:102FD0006C2100001B5B306D0A00000010B5094930
:102FE000042000F063F90748001F407900F0010059
:102FF00030B90448001F0079C00908B1012010BD94
:103000000020FCE7D40300202DE9F74191B00D46E4
:103010001746202108A8FDF72AF908AC20216846A8
:10302000FDF725F90820ADF8040000208DF80A000E
:1030300011A800900120ADF806000821ADF8141089
:1030400001218DF81A1004947900ADF816100222AF
:1030500069462D4802F06FFC02280ED000BF2BA05D
:1030600005F0B6FE2EA005F0B3FE36A005F0B0FECA
:1030700000BF002014B0BDE8F08111208DF84000A1
:1030800020788DF841000722022110A800F092FD5F
:103090000646641C2078B0420CD000BF1BA005F08F
:1030A00097FE2AA005F094FE26A005F091FE00BF31
:1030B0000020DFE714F8010C28704FF001081FE032
:1030C000641C07220121204600F074FD0646641CA2
:1030D0006D1C2078B0420CD000BF0CA005F078FE2B
:1030E00024A005F075FE17A005F072FE00BF0020B9
:1030F000C0E714F8010C287008F1010000F0FF0887
:10310000B845DDDB0120B5E7B00100201B5B3331A2
:103110006D5B452F627137363932305D200000001B
:103120005265616420526567697374657220426CF0
:103130006F636B2057697468204352432043616971
:103140006C0000001B5B306D0A000000526561647A
:1031500020526567697374657220426C6F636B20DF
:10316000435243203120436865636B204661696C9C
:1031700000000000526561642052656769737465E0
:103180007220426C6F636B20435243204368656337
:103190006B204661696C000033B58BB00D46202171
:1031A00001A8FDF764F80820ADF8080000208DF8AC
:1031B0000E000BA801900120ADF80A000821ADF81F
:1031C000181001218DF81E100AA805900221ADF8F3
:1031D0001A10022201A91B4802F0ADFB02280DD0F3
:1031E00000BF19A005F0F4FD1CA005F0F1FD24A01E
:1031F00005F0EEFD00BF00200DB030BD11208DF8B0
:1032000024009DF828008DF825000722022109A836
:1032100000F0D0FC04469DF82900A0420CD000BF6D
:1032200009A005F0D5FD18A005F0D2FD14A005F009
:10323000CFFD00BF0020DFE79DF8280028700120A7
:10324000DAE70000B00100201B5B33316D5B452FD6
:10325000627137363932305D20000000526561649A
:1032600020526567697374657220427974652057CE
:1032700069746820435243204661696C0000000075
:103280001B5B306D0A000000526561642052656767
:1032900069737465722042797465204352432043F8
:1032A0006865636B204661696C00000033B58BB0C4
:1032B0000D46202101A8FCF7DAFF0820ADF8080030
:1032C00000208DF80E000BA801900120ADF80A0037
:1032D0000821ADF8181001218DF81E100AA80590DC
:1032E0000421ADF81A10022201A9274802F023FB9D
:1032F00002280DD000BF25A005F06AFD28A005F02A
:1033000067FD30A005F064FD00BF00200DB030BDAA
:1033100011208DF824009DF828008DF82500072243
:10332000022109A800F046FC04469DF82900A042AD
:103330000CD000BF15A005F04BFD24A005F048FD02
:1033400020A005F045FD00BF0020DFE70722012196
:103350000DF12A0000F02EFC04469DF82B00A0423F
:1033600009D000BF22A005F033FD25A005F030FDF7
:1033700000BF0020CAE79DF828009DF82A1040EA07
:10338000012028800120C1E7B00100201B5B333100
:103390006D5B452F627137363932305D2000000099
:1033A0005265616420526567697374657220576F56
:1033B0007264205769746820435243204661696CE7
:1033C000000000001B5B306D0A0000005265616464
:1033D00020526567697374657220576F7264204369
:1033E0005243203120436865636B204661696C005D
:1033F0005B42513736395830204552524F525D00AA
:103400005265616420526567697374657220576FF5
:10341000726420435243203220436865636B204628
:1034200061696C0D0A0000001FB54FF40040009068
:10343000002001900290032003906946014800F0AB
:10344000DFFF1FBD000801401FB54FF40040009092
:103450000120019000200290032003906946024859
:1034600000F0CEFF1FBD00000008014070B52049EC
:103470002A20FFF71BFF50B900BF1EA005F0A8FCD3
:1034800021A005F0A5FC27A005F0A2FC00BF18486C
:103490002A3890F82B0016492A3991F82A1040EA68
:1034A00001242046FDF775F90546204801684FF0D4
:1034B0008140FCF76DFF06462946FCF769FF1C4971
:1034C000C8611C4991F9001001EB8100FDF758F922
:1034D00005461748C1692846FCF702FF1449C86130
:1034E000C8691549FCF786FF1149C86170BD000025
:1034F000FA0300201B5B33316D5B452F6271373659
:103500003932305D200000005570646174652042DE
:1035100061747465727920566F6C746167652046BA
:1035200061696C001B5B306D0A000000D001002057
:1035300008040020D601002000007A442DE9F05F45
:103540000024A346A146A2460A221F490C20FFF7E9
:103550005BFD50B900BF1DA005F03AFC20A005F0AE
:1035600037FC26A005F034FC00BFDFF85C90002497
:1035700026E099F8010099F8001000EB01201FFAED
:1035800080FB2048B0F900000BFB00F04FF47A718B
:10359000B0FBF1FA1C4890F9000082445046FDF758
:1035A0000EF907460022194BFDF77BF80546FDF79B
:1035B00083F9174941F8240009F10209601CC4B2DB
:1035C000052CD6DBBDE8F09FDC0300201B5B33310C
:1035D0006D5B452F627137363932305D2000000057
:1035E0005570646174652043656C6C20566F6C7413
:1035F000616765204661696C000000001B5B306DEF
:103600000A000000D4010020D601002000408F40B5
:10361000080400202DE9FF4721493220FFF746FE2C
:1036200050B900BF1FA005F0D3FB23A005F0D0FBCD
:1036300026A005F0CDFB00BF1948323890F83300C2
:103640001749323991F8321040EA012A0AF4004051
:1036500028B16FEA0A00401C80B2C0F1000A1D4880
:103660000068FDF7E6F804460D465046FDF796F86B
:10367000194A1A4BCDE90001FCF7A1FF0646224684
:103680002B46FDF70EF88046154A164BFCF797FFC0
:10369000CDE90201FDF710F913498861BDE8FF8704
:1036A000020400201B5B33316D5B452F627137369E
:1036B0003932305D2000000055706461746520432C
:1036C000757272656E74204661696C001B5B306DAB
:1036D0000A000000D8010020E17A14AE47E1204042
:1036E0008DEDB5A0F7C6B03E080400202DE9F04FDF
:1036F00085B04FF0000BDA46002004908146364832
:103700000078B0B10020344908701821042000F07E
:1037100023F950B900BF31A005F05AFB34A005F0E1
:1037200057FB3AA005F054FB00BF4FF4FA6006F0D7
:1037300021FC022237492C20FFF766FC50B900BF5C
:1037400026A005F045FB2AA005F042FB2FA005F0BE
:103750003FFB00BFDFF8BC90002438E099F801007F
:1037600099F8001040EA012B5846FDF728F8074663
:10377000294A2A4BFCF723FF0546FDF79DF88246B0
:103780005046FDF756F805464FF06632244BFCF7DD
:1037900013FF0746884651462248FCF7F9FD0546C7
:1037A000FDF747F83A464346CDE90001FCF779FFBB
:1037B000CDE90201FDF780F80490049802F03AFB8D
:1037C000194941F82400601CC4B209F10209012C16
:1037D000C4DB05B0BDE8F08FD70100201B5B33319F
:1037E0006D5B452F627137363932305D2000000045
:1037F000557064617465205473782054656D7065EC
:10380000726174757265204661696C001B5B306D76
:103810000A000000FC0300207978CF81E508393FD9
:1038200066660A4000401C461C04002010B5FFF7E5
:103830000BFE0122D1030A4800F084FF4FF47A7096
:1038400006F098FB00224FF40041054800F07AFF93
:10385000FFF7EAFD4FF47A7006F08CFB10BD000014
:10386000000801402DE9F0418CB007460D46164690
:10387000202104A8FCF7FBFC00200090019002909E
:10388000039004AC102004F8010B04F8017B2878A5
:1038900004F8010B0722032104A800F08BF9207023
:1038A0004FF001080EE0641C6D1C28782070072280
:1038B0000121204600F07EF96070641C08F10100CF
:1038C00000F0FF08B045EEDB0820ADF80400002052
:1038D0008DF80A000DF1110000907000401CADF849
:1038E0000600012269460B4802F025F801280ED097
:1038F00000BF09A005F06CFA0CA005F069FA14A04D
:1039000005F066FA00BF00200CB0BDE8F081012090
:10391000FAE70000B00100201B5B33316D5B452FDF
:10392000627137363932305D200000005772697499
:103930006520526567697374657220426C6F636BB2
:10394000205769746820435243204661696C000027
:103950001B5B306D0A00000030B585B004460D4693
:103960000020009001900290039010208DF810002C
:103970008DF811408DF812500722032104A800F0A1
:1039800019F98DF813000820ADF8040000208DF817
:103990000A000DF1110000900320ADF8060001228D
:1039A00069460A4801F0C7FF01280DD000BF08A0F2
:1039B00005F00EFA0BA005F00BFA13A005F008FABB
:1039C00000BF002005B030BD0120FBE7B0010020A2
:1039D0001B5B33316D5B452F627137363932305D99
:1039E000200000005772697465205265676973741E
:1039F0006572204279746520576974682043524388
:103A0000204661696C0000001B5B306D0A000000FD
:103A100010B5FFF7FFFD024880690249886010BDBC
:103A2000080400206803002010B5FFF71FFD0248BE
:103A3000C0690249486010BD0804002068030020E6
:103A400070B500240025FFF751FE18E0114951F828
:103A500024001149FCF756FF0FD80E4951F82400F5
:103A60000E49FCF745FF08D80A4850F8242028469C
:103A7000691CCDB20A4941F82020601CC4B2094833
:103A80004079A042E2DC06488564294600F03CF813
:103A900070BD00001C04002000005CC20000FA425F
:103AA00068030020A301002010B5FFF747FD0020A8
:103AB00011E00F4951F820200E4941F820200C490F
:103AC00051F820200B49283941F8302001EBC00182
:103AD0004860411CC8B2084909798142E9DC0648BE
:103AE0000179064B08220348283800F030F810BD51
:103AF000080400209C030020A3010020496F000857
:103B000010B5FFF76BFA10BD2DE9F04105460E46E2
:103B1000012718E0002412E0621C55F8221055F825
:103B20002400FCF7EFFE09D255F82480601C55F8FC
:103B3000200045F82400601C45F82080641CF01B20
:103B4000A042E9D87F1CB742E4D3BDE8F0812DE95B
:103B5000F04705460F46164699464FF000080024E8
:103B60004FF0010818E0002410E0621C02FB06512F
:103B700004FB0650C847002807DD621C02FB065103
:103B800004FB0650324607F0BEF8641CA7EB0800A1
:103B9000A042EAD808F10108B845E4D3BDE8F087AF
:103BA00000BFFEE710B5024800F0F5F810BD0000B8
:103BB000B802002070B503460C46002016E08021B4
:103BC00011E000F080051DB14506280E504001E0CF
:103BD0004506280E1D780D4005B150400D4601EBFD
:103BE000D576C6F347010029EBD15B1C251EA4F155
:103BF0000106F4B2E3D170BD704710B54FF48050A8
:103C000000F0F0FB10BD72B600BFFEE710B5044631
:103C10002189206800F084FD10BD704770B504460E
:103C200094F82050012D01D0022D7DD151B920688A
:103C3000C06800F0030080B9606A40F40010606260
:103C4000012070BD2068006900F0030028B9606A97
:103C500040F4001060620120F3E7206800F5D8709E
:103C600000EB0110006800F004009060906840B91B
:103C7000206800F5D87000EB01100068400D10605E
:103C800007E0206800F5D87000EB01100068C0085C
:103C90005060206800F5D87000EB0110006800F05B
:103CA0000200D060206800F5D87000EB0110406879
:103CB00000F00F001061206800F5D87000EB0110D3
:103CC000406800F47F40000A9061206800F5D870D9
:103CD00000EB01104068000C5061206800F5D870BE
:103CE00000EB011080681870206800F5D87000EBB8
:103CF0000110806800F47F40000A5870206800F5C9
:103D0000D87000EB0110806800F47F00000C987000
:103D1000206800F5D87000EB01108068000ED870A4
:103D2000206800F5D87000E02FE000EB0110C068BB
:103D30001871206800F5D87000EB0110C06800F41D
:103D40007F40000A5871206800F5D87000EB011020
:103D5000C06800F47F00000C9871206800F5D870EE
:103D600000EB0110C068000ED87131B92068C0683E
:103D700040F020002668F06005E02068006940F00F
:103D800020002668306100205BE7606A40F48020F4
:103D90006062012055E72DE9F05F044600252068A8
:103DA00046692068D0F80490206887682068D0F8B9
:103DB0000CA02068D0F810B02068D0F8188006F069
:103DC0000100002855D007F00100C0B10120216892
:103DD000886007F0020018B1204600F071FA0EE08A
:103DE00007F0040010B145F4006508E007F0080092
:103DF00010B145F4805502E0204600F060FA07F467
:103E00008070C8B14FF480702168886007F400703A
:103E100018B1204600F056FA0EE007F4806010B1A9
:103E200045F4005508E007F4006010B145F4804502
:103E300002E0204600F045FA07F48030C8B14FF4A4
:103E400080302168886007F4003018B1204600F007
:103E50003BFA0EE007F4802010B145F4004508E07D
:103E600007F4002010B145F4803502E0204600F050
:103E70002AFA06F0080038B10AF0100020B145F423
:103E8000007510202168C86006F0040040B10AF0F7
:103E9000080028B108202168C860204600F0B0F969
:103EA00006F0020038B12068C06800F0030010B1CD
:103EB000204600F0A7F906F0400038B10BF01000E2
:103EC00020B145F4806510202168086106F02000CB
:103ED00040B10BF0080028B1082021680861204695
:103EE00000F0EAF906F0100038B12068006900F02F
:103EF000030010B1204600F0E0F906F4003040B1B4
:103F000009F0100028B1102021684860204600F018
:103F1000D5F906F4803040B109F0080028B1082036
:103F200021684860204600F0D0F906F4004088B3CC
:103F300009F0040078B306F4807020B108F00100A5
:103F400008B145F0010506F4007020B108F0020048
:103F500008B145F0020506F4806020B108F00400C5
:103F600008B145F0040506F40060A0B108F0700047
:103F700088B108F07000402817D006DC10280BD05C
:103F800020280CD0302819D10CE0502810D06028FF
:103F900014D110E01DE019E045F008050FE045F0F0
:103FA00010050CE045F0200509E045F0400506E06D
:103FB00045F0800503E045F4807500E000BF00BFD8
:103FC0002068806920F070002168886104202168E1
:103FD00048602DB1606A284360622046FFF71DFEED
:103FE000BDE8F09F70B504460CB9012070BD94F88F
:103FF000200010B9204600F0AFF82068006840F0BB
:1040000001002168086000F0A3FB05460DE000F008
:104010009FFB401B0A2808D9606A40F400306062A8
:10402000052084F820000120E0E72068406800F0C7
:1040300001000028EBD02068006820F00200216811
:10404000086000F085FB05460DE000F081FB401B99
:104050000A2808D9606A40F400306062052084F8BC
:1040600020000120C2E72068406800F0020000281C
:10407000EBD1207E012806D12068006840F0800046
:104080002168086005E02068006820F08000216851
:104090000860607E012806D12068006840F040007A
:1040A0002168086005E02068006820F04000216871
:1040B0000860A07E012806D12068006840F020003A
:1040C0002168086005E02068006820F02000216871
:1040D0000860E07E012806D12068006820F010000A
:1040E0002168086005E02068006840F01000216841
:1040F0000860207F012806D12068006840F0080091
:104100002168086005E02068006820F00800216848
:104110000860607F012806D12068006840F0040034
:104120002168086005E02068006820F0040021682C
:104130000860D4E902010843216908436169084322
:104140006168491E08432168C8610020606201203F
:1041500084F82000002049E710B586B0044600200E
:1041600002900390049005902249206888423ED135
:1041700000BF2148C06940F000701F49C86108466F
:10418000C06900F00070019000BF00BF00BF08468A
:10419000806940F0040088610846806900F00400EE
:1041A000019000BF00BFC81402900020039004904B
:1041B00002A9124800F024F94FF480500290022026
:1041C00003900320059002A90C4800F019F9002281
:1041D0001146142000F03AFB142000F027FB0222C5
:1041E0001146152000F032FB152000F01FFB06B031
:1041F00010BD0000006400400010024000080140B3
:104200007047000010B592B0044610AB09AA002117
:104210002046FFF703FD60B100BF14A004F0D8FDF5
:1042200017A004F0D5FD1CA004F0D2FD00BF12B011
:1042300010BD1C2209A96846FCF700F8DDE9100151
:10424000CDE90701242269461548006804F064FF9F
:1042500050B100BF05A004F0BBFD12A004F0B8FDF2
:104260000DA004F0B5FD00BF00BFE0E71B5B3331DC
:104270006D5B452F6472765F63616E5D20000000A8
:1042800063616E2072656164206D6573736167653B
:10429000206572726F7200001B5B306D0A000000B7
:1042A000E001002063616E2073656E64206D7120F3
:1042B0006572726F720000007047704770477047F8
:1042C000704770477047704770477047014600223B
:1042D00091F82100022808D00420886300BF002044
:1042E00081F8200000BF012070470868006820F0B6
:1042F0000E000B6818600868006820F001000B6869
:10430000186091F8403001209840CB6B5860012034
:1043100081F8210000BF002081F8200000BF104676
:10432000E2E7000070B50446002594F82100022859
:1043300003D00420A063012548E02068006820F035
:104340000E00216808602068006820F001002168E4
:1043500008601F492068884201D1012026E01C49DD
:1043600014312068884201D110201FE018492831FB
:104370002068884201D1801518E015493C31206839
:10438000884201D1801411E01149503120688842DF
:1043900002D14FF4803009E00D4964312068884231
:1043A00002D14FF4801001E04FF0807008490839C5
:1043B0004860012084F8210000BF002084F820001C
:1043C00000BF606B10B12046616B8847284670BD06
:1043D0000800024010B50446B4F5805F01D1FEF735
:1043E000BDFB10BD10B5044604480068204020B154
:1043F000024804602046FFF7EDFF10BD14040140A1
:104400002DE9F8470346002294466EE14FF001087B
:1044100008FA02F4D1F8008008EA0400A0427DD135
:10442000DFF8DCA2D1F80480A8EB0A09D0453AD025
:1044300014DCB8F1030F50D009DCB8F1000F31D013
:10444000B8F1010F1CD0B8F1020F49D120E0B8F14A
:10445000110F18D0B8F1120F42D11EE0B9F5881F24
:1044600025D006DCB9F5803F20D0B9F5801F37D1C3
:104470001AE0B9F5001F18D0B9F5041F30D117E0C4
:10448000D1F80CC02DE0D1F80C8008F1040C28E024
:10449000D1F80C8008F1080C23E0D1F80C8008F169
:1044A0000C0C1EE000BF00BF00BF00BF00BF00BF7C
:1044B000D1F80880B8F1000F02D14FF0040C0BE0E6
:1044C000D1F80880B8F1010F03D14FF0080C1C613E
:1044D00002E04FF0080C5C6103E04FF0000C00E0DC
:1044E00000BF00BFFF2801D8984601E003F104088F
:1044F0004646FF2802D84FEA820803E0A2F10808E6
:104500004FEA88084746D6F800804FF00F0909FAAD
:1045100007F928EA09080CFA07F900E088E048EAF8
:104520000908C6F80080D1F8048008F08058B8F176
:10453000805F7DD100BFDFF8CC81D8F8188048F0CB
:104540000108DFF8C091C9F81880C846D8F818806B
:1045500008F00108CDF8008000BF00BF4FEAB9386D
:104560004FEA920958F829504FEA82784FEA1879B1
:104570004FF00F0808FA09F825EA0805DFF88881E6
:10458000434502D14FF0000816E0DFF88081434533
:1045900002D14FF001080FE0DFF87481434502D1EA
:1045A0004FF0020808E0DFF86C81434502D14FF07C
:1045B000030801E04FF004084FEA82794FEA1979C5
:1045C00008FA09F848EA0505DFF84C814FEA920934
:1045D00048F82950D1F8048008F48038B8F5803FB5
:1045E0000AD1DFF83881D8F8008048EA0008DFF8FF
:1045F0002C91C9F8008009E0DFF82081D8F800800C
:1046000028EA0008DFF81491C9F80080D1F8048086
:1046100008F40038B8F5003F10D1DFF8008108F148
:104620000408D8F8008048EA0008DFF8F09000E0BD
:104630005AE009F10409C9F800800DE0DFF8DC80D8
:1046400008F10408D8F8008028EA0008DFF8CC90C8
:1046500009F10409C9F80080D1F8048008F4801831
:10466000B8F5801F0ED1DFF8B48008F10808D8F83B
:10467000008048EA0008DFF8A49009F10809C9F8A9
:1046800000800DE0DFF8948008F10808D8F8008079
:1046900028EA0008DFF8849009F10809C9F80080C9
:1046A000D1F8048008F40018B8F5001F0ED1DFF827
:1046B0006C8008F10C08D8F8008048EA0008DFF8A0
:1046C0005C9009F10C09C9F800800DE0DFF84C801E
:1046D00008F10C08D8F8008028EA0008DFF83C90C0
:1046E00009F10C09C9F80080521CD1F8008028FAA1
:1046F00002F8B8F1000F7FF489AEBDE8F88700003A
:10470000000011100010024000080140000C0140A0
:104710000010014000140140080001400004014065
:10472000024693680B400BB1012000E00020704767
:1047300010B5C26821EA020302EA010443EA044315
:10474000036110BD0AB1016101E00B040361704710
:1047500001480068704700000000002010B50848BC
:10476000006840F0100006490860032000F0ACF833
:10477000002000F007F800F02BF8002010BD00002A
:104780000020024070B504460E4800784FF47A715C
:10479000B1FBF0F00C490968B1FBF0F5284600F0D8
:1047A0000FFC08B1012070BD102C07D20022214659
:1047B000501E00F04BF80548046001E00120F2E7CC
:1047C0000020F0E7080000200C000020040000207A
:1047D00008B500BF1348806940F0010011498861A5
:1047E0000846806900F00100009000BF00BF00BFD4
:1047F0000846C06940F08050C8610846C06900F0B2
:104800008050009000BF00BF052000F05DF800BFA1
:104810000549486820F0E06040F00070486000BF43
:1048200008BD00000010024000000140014608469B
:10483000002809DB00F01F0301229A4043099B0076
:1048400003F1E023C3F8002100BF70472DE9F05FBA
:1048500080460D461646002701F020FD07463946E2
:104860002A46334601F00700C0F1070ABAF1040FE7
:1048700002D94FF0040A01E0C0F1070AD14600F165
:10488000040ABAF1070F02D24FF0000A01E0A0F1CA
:10489000030AD4464FF0010A0AFA09FAAAF1010AFA
:1048A0000AEA020A0AFA0CFA4FF0010B0BFA0CFBA7
:1048B000ABF1010B0BEA030B4AEA0B04214640461D
:1048C00001F0F4FCBDE8F09F00BF00F00702064BCA
:1048D00019684FF6FF031940044B0B4343EA0221CA
:1048E000014B196000BF70470CED00E00000FA05B5
:1048F00070B504460D460CB9012070BD5A480068D9
:1049000000F00700A8420ED25748006820F00700C8
:104910002843554908600846006800F00700A8428F
:1049200001D00120E9E7207800F0020002281DD123
:10493000207800F00400042805D14C48406840F479
:10494000E0604A494860207800F00800082805D156
:104950004648406840F460504449486043484068D5
:1049600020F0F000A168084340494860207800F03A
:10497000010078B36068012806D13C48006800F463
:10498000003090B90120B8E76068022806D13748A6
:10499000006800F0007040B90120AEE733480068BD
:1049A00000F0020008B90120A7E73048406820F075
:1049B0000300616808432D494860FFF7C9FE0646B9
:1049C00009E0FFF7C5FE801B41F28831884202D919
:1049D000032092E707E02548406800F00C0061687A
:1049E000B0EB810FEDD12048006800F00700A8422D
:1049F0000ED91D48006820F0070028431A490860B6
:104A00000846006800F00700A84201D0012074E7C2
:104A1000207800F00400042807D11448406820F4EE
:104A2000E060E168084311494860207800F0080020
:104A3000082808D10D48406820F46050216940EAF8
:104A4000C1000A49486000F03FF808494968C1F3CD
:104A50000311074A515CC8400649086006480068CF
:104A6000FFF790FE002048E70020024000100240BF
:104A70003AAE00080C000020040000200148006845
:104A8000704700000C00002000B5FFF7F7FF044955
:104A90004968C1F30221034A515CC84000BD0000CF
:104AA000001002404AAE000800B5FFF7E7FF0449D6
:104AB0004968C1F3C221034A515CC84000BD0000EF
:104AC000001002404AAE0008F0B585B00FF26C0C41
:104AD0009CE8E01001A8A0E8E0101CA52D68009556
:104AE00000210022002300240020194D696801F0F4
:104AF0000C05F5B1042D02D0082D19D101E015489F
:104B000019E001ADC1F38346AC5D01F4803555B1C8
:104B10000F4D6D68C5F340451DF805200D4D6543EB
:104B2000B5FBF2F302E00C4D04FB05F3184602E07E
:104B300000BF084800BF00BF05B0F0BD0203040578
:104B4000060708090A0B0C0D0E0F101001020000D9
:104B50000010024000127A0000093D00F8B504463A
:104B60000CB90120F8BD207800F00100002878D0B1
:104B7000F848406800F00C0004280CD0F548406864
:104B800000F00C00082811D1F248406800F4803091
:104B9000B0F5803F0AD1EF48006800F400300028EB
:104BA0005FD0606800285CD10120DBE700BF60684F
:104BB000B0F5803F06D1E748006840F48030E54911
:104BC000086028E0606858B9E248006820F4803046
:104BD000E04908600846006820F4802008601AE078
:104BE0006068B0F5A02F0BD1DA48006840F480204F
:104BF000D84908600846006840F4803008600AE040
:104C0000D448006820F48030D24908600846006823
:104C100020F48020086000BF606888B1FFF798FD2D
:104C2000054606E0FFF794FD401B642801D90320E8
:104C300098E7C848006800F400300028F2D010E07F
:104C4000FFF786FD054606E0FFF782FD401B64285E
:104C500001D9032086E7BF48006800F4003000282F
:104C6000F2D1207800F00200022857D1B9484068FC
:104C700000F00C0050B1B748406800F00C00082864
:104C800018D1B448406800F4803098B9B148006841
:104C900000F0020020B12069012801D0012061E765
:104CA000AC48006820F0F800616940EAC100A949F9
:104CB000086033E02069E8B10120A7490860FFF7E8
:104CC00047FD054606E0FFF743FD401B022801D9DA
:104CD000032047E79F48006800F002000028F2D058
:104CE0009C48006820F0F800616940EAC1009949D9
:104CF000086013E0002098490860FFF729FD054689
:104D000006E0FFF725FD401B022801D9032029E713
:104D10009048006800F002000028F2D1207800F0EE
:104D2000080008282DD1A069B8B101208B4908607E
:104D3000FFF70EFD054606E0FFF70AFD401B0228BF
:104D400001D903200EE78348406A00F002000028E2
:104D5000F2D0012000F082FF13E000207F490860BC
:104D6000FFF7F6FC054606E0FFF7F2FC401B0228C1
:104D700001D90320F6E67748406A00F002000028D7
:104D8000F2D1207800F00400042873D10027714884
:104D9000C06900F0805070B900BF6E48C06940F033
:104DA00080506C49C8610846C06900F0805000908E
:104DB00000BF00BF01276A48006800F48070B0B9E6
:104DC0006748006840F4807065490860FFF7C0FCE0
:104DD000054606E0FFF7BCFC401B642801D9032010
:104DE000C0E65F48006800F480700028F2D000BF81
:104DF000E068012806D15748006A40F00100554993
:104E0000086227E0E06858B95248006A20F00100C3
:104E1000504908620846006A20F00400086219E060
:104E2000E06805280BD14B48006A40F0040049496E
:104E300008620846006A40F0010008620AE045483E
:104E4000006A20F00100434908620846006A20F029
:104E50000400086200BFE068A0B1FFF779FC0546D6
:104E600009E0FFF775FC401B41F28831884202D906
:104E7000032077E622E03748006A00F002000028AD
:104E8000EFD012E0FFF764FC054608E0FFF760FC96
:104E9000401B41F28831884201D9032062E62D4847
:104EA000006A00F002000028F0D1012F05D1294846
:104EB000C06920F080502749C86100BFE069C8B3CD
:104EC0002448406800F00C00082860D0E0690228FF
:104ED00048D1002020490866FFF73AFC054606E065
:104EE000FFF736FC401B022801D903203AE6194897
:104EF000006800F000700028F2D1206AB0F5803F11
:104F000007D11448406820F40030A16808431149D3
:104F10004860D4E9080108430E49496821F4741136
:104F200008430C49486001200B490866FFF710FC54
:104F3000054607E03DE0FFF70BFC401B022801D9C6
:104F400003200FE60348006800F000700028F2D04C
:104F50002FE0000000100240000042428004424264
:104F600000700040002014490866FFF7F1FB054679
:104F700006E0FFF7EDFB401B022801D90320F1E515
:104F80000E48006800F000700028F2D111E0E069DE
:104F9000012800D1E6E50948466806F48031206A18
:104FA000814204D106F47011606A814201D001206F
:104FB000D8E50020D6E50000000042420010024083
:104FC00070B504462546681EB0F1807F01D30120EC
:104FD0000FE0681E4FF0E02148610F214FF0FF30D5
:104FE00001F064F900204FF0E0218861072008619A
:104FF000002070BD704770472DE9F84F04462068C7
:1050000005682068C668206847694FF00009CA46ED
:1050100005F00F09B9F1000F0AD105F0200038B1F1
:1050200006F0200020B1204600F097FFBDE8F88F81
:10503000B9F1000F71D007F0010018B906F49070B3
:1050400000286AD005F0010030B106F4807018B174
:10505000206C40F00100206405F0040030B107F03E
:10506000010018B1206C40F00200206405F002003D
:1050700030B107F0010018B1206C40F0040020644A
:1050800005F0080048B106F0200010B907F0010053
:1050900018B1206C40F008002064206C68B305F063
:1050A000200028B106F0200010B1204600F055FF86
:1050B00020684069C0F3801A206C00F0080010B925
:1050C000BAF1000F22D0204600F01CFF2068406992
:1050D00000F04000B0B12068406920F04000216835
:1050E0004861A06B50B15648A16B4863A06BFFF7B5
:1050F00019F910B1A06B416B88470CE02046FFF70F
:105100007AFF08E02046FFF776FF04E02046FFF72D
:1051100072FF0020206489E7FFE7206B012878D127
:1051200005F01000002874D006F01000002870D0A0
:1051300000BF002000902068006800902068406850
:10514000009000BF00BF2068406900F04000C0B37D
:10515000A06B006840681FFA80F8B8F1000F2FD0EC
:10516000A08D40452CDDA4F82E80A06B80692028FE
:105170001FD02068C06820F480702168C860206853
:10518000406920F00100216848612068406920F0F2
:10519000400021684861202084F83E000020206300
:1051A0002068C06820F010002168C860A06BFFF77D
:1051B0008DF8A08DE28D801A81B22046FFF71AFF8C
:1051C00034E7FFE7A08DE18D401A1FFA80F8E08DEB
:1051D000E8B1B8F1000F1AD02068C06820F49070D0
:1051E0002168C8602068406920F00100216848619A
:1051F000202084F83E00002020632068C06820F052
:1052000010002168C86041462046FFF7F3FE0DE715
:10521000FFE705F0800030B106F0800018B12046AD
:1052200000F0AFFF02E705F0400030B106F04000AB
:1052300018B1204600F081FEF8E600BFF6E6000057
:10524000F15E000810B504460CB9012010BDA0693C
:1052500000B100E000BF94F83D0028B9002084F8B8
:105260003C00204600F028F8242084F83D00206807
:10527000C06820F400502168C860204600F0E0FEBD
:105280002068006920F49040216808612068406926
:1052900020F02A00216848612068C06840F400506E
:1052A0002168C86000202064202084F83D0084F834
:1052B0003E000020CAE7000010B586B0044600207A
:1052C00002900390049005903749206888422FD1BE
:1052D00000BF3648806940F4804034498861084600
:1052E000806900F48040019000BF00BF00BF084605
:1052F000806940F0040088610846806900F004007D
:10530000019000BF00BF48150290022003900320C7
:10531000059002A92648FFF773F84FF480600290C9
:1053200000200390049002A92148FFF769F839E0B2
:1053300020492068884235D100BF1C48C06940F42C
:1053400000301A49C8610846C06900F40030019075
:1053500000BF00BF00BF0846806940F004008861BC
:105360000846806900F00400019000BF00BF0420DF
:105370000290022003900320059002A90C48FFF739
:105380003FF80820029000200390049002A90848EA
:10539000FFF736F8012202212620FFF757FA2620D0
:1053A000FFF744FA06B010BD00380140001002407B
:1053B000000801400044004070B504460D46164602
:1053C00094F83E00202816D105B10EB9012070BD19
:1053D00000BF94F83C00012801D10220F7E701202A
:1053E00084F83C0000BF0020206332462946204656
:1053F00000F0A4FEEBE70220E9E7000010B5044648
:105400000B492068884212D100BF0AA003F0E0FCDB
:105410000DA003F0DDFC10A003F0DAFC00BF0120BA
:1054200000F030FC01220E490E4800F086F810BD55
:10543000004400401B5B306D5B442F6472765F72EA
:10544000733438355D20000072733438352072783B
:1054500020646F6E650000001B5B306D0A00000069
:10546000DF010020240300202DE9F84F04460E46FA
:10547000174699464FF0000A94F83D0020285AD16B
:1054800006B117B90120BDE8F88F00BF94F83C00C1
:10549000012801D10220F6E7012084F83C0000BF7A
:1054A00000202064212084F83D00FFF751F9824656
:1054B000A784E784A068B0F5805F04D1206910B9A3
:1054C0000025B04602E035464FF0000800BF00203E
:1054D00084F83C0000BF1BE0534600228021204698
:1054E000CDF8009000F07DFE08B10320CBE745B970
:1054F000B8F80000C0F308002168486008F102080D
:1055000003E02878216848606D1CE08C401EE08430
:10551000E08C0028E0D15346002240212046CDF8FF
:10552000009000F05EFE08B10320ACE7202084F874
:105530003D000020A7E70220A5E710B5034693F839
:105540003D00202823D101B10AB9012010BD00BFC0
:1055500093F83C00012801D10220F7E7012083F8ED
:105560003C0000BF19629A84DA840020186421206C
:1055700083F83D0000BF002083F83C0000BF18689E
:10558000C06840F080001C68E0600020DEE7022078
:10559000DCE7000010B504460B492068884212D1B0
:1055A00000BF0AA003F014FC0DA003F011FC10A032
:1055B00003F00EFC00BF002000F064FB01220E4946
:1055C0000E48FFF7F9FE10BD004400401B5B306D34
:1055D0005B442F6472765F72733438355D2000004F
:1055E000727334383520747820646F6E6500000063
:1055F0001B5B306D0A000000DF0100202403002047
:1056000010B5FAF791FD0149086010BDAC0100200A
:105610007047000010B502480068FAF789FD10BD18
:10562000AC0100202DE9F05F81460D4695F80A8017
:10563000A87A00F008070FB1002001E0D9F80C00AB
:1056400000F0FF0A08F00200002833D0A8880621E5
:1056500001EAE01040F0F00695F804B052463146F9
:10566000484600F0EAF80446012C03D017B90020A0
:10567000BDE8F09F5946484600F0B8F90446012CB1
:1056800002D00FB90020F3E708F0010028B3484624
:1056900000F0BEF846F0010652463146484600F09A
:1056A000CCF80446012C18D0BFB90DA003F090FB34
:1056B0000020DDE728794006060E08F0010008B159
:1056C00046F0010652463146484600F0B6F8044618
:1056D000012C02D00FB90020CAE70120C8E7000062
:1056E0003C3C2D4932432D4552524F522D3E3E20D7
:1056F0004E41434B3A2073656E64696E6720726554
:1057000070656174656420616464720D0A00000054
:105710001FB504466089218908430090112001903B
:10572000002002900320039069462068FEF768FE7F
:10573000618901222068FFF705F82189012220688C
:10574000FFF700F8606908B1606980471FBD00007D
:1057500010B50248FFF7DCFF002010BDB0010020AB
:1057600070B504460026204600F0A6FA0120216903
:105770008847204600F0B0FA80250EE0204600F071
:105780008BFA2046FEF742FA00B12E43204600F085
:105790008BFA0120216988476D10002DEED120463B
:1057A00000F0A8FA304670BD2DE9F05F80460C4647
:1057B000D4F800904FF0000AE58824E04046FFF757
:1057C000CFFF064689F800600AF101001FFA80FA4F
:1057D00009F10109681E85B2A07A00F0100090B9A5
:1057E0004746AB46BBF1000F02D0384600F06CFADA
:1057F000012039698847384600F04EFA384600F0F3
:1058000053FA00BF00BF002DD8DC5046BDE8F09F22
:1058100010B50446204600F04FFA204600F03CFA4E
:10582000012021698847204600F04EFA01202169B5
:105830008847204600F038FA10BD2DE9F0410646B1
:10584000884614460027002515E04146304600F002
:10585000CDF80746012F00D10FE0A54200D10CE0A2
:10586000304600F053F8012031698847304600F097
:1058700041F8681CC5B2A542E7D900BF3846BDE86B
:10588000F0812DE9F04781460C4626680027B4F8E0
:10589000068028E0A07A00F0400028B1E17A48466E
:1058A00000F0A4F800B921E0A07A00F0800020B157
:1058B000217B484600F09AF803E03178484600F032
:1058C00095F80546761C002D04DCA07A00F008004F
:1058D00038B135B9A8F101001FFA80F8781C87B2F9
:1058E00001E005B902E0B8F1000FD3DC00BF384693
:1058F000BDE8F08710B50446204600F0E5F9012028
:1059000021698847204600F0CFF910BD10B5044644
:10591000204600F0D9F9012021698847204600F08F
:10592000BBF9012021698847204600F0C5F9012014
:105930002169884710BD2DE9F04705468846914604
:1059400000272DB1B8F1000F02D0B9F1000F02D13C
:105950003846BDE8F087A86908B1A86980470026E5
:1059600033E008EB0614A07A00F0080AA07A00F0F1
:10597000040090B91EB12846FFF74AFF02E028460E
:10598000FFF7B8FF21462846FFF74CFE0746012FD8
:1059900003D0BAF1000F00D11BE0A07A00F00100A3
:1059A00030B121462846FFF7FFFE074627810BE06E
:1059B00021462846FFF765FF074627812089E188B1
:1059C000884201D0002704E0761C4E45C9D33746F3
:1059D00000BFA07A00F0200010B92846FFF796FF1C
:1059E000E86908B1E86980473846B2E72DE9F04137
:1059F00004460F46802513E0204600F055F907EADB
:105A0000050018B1204600F057F902E0204600F0EA
:105A10005BF9012021698847204600F03DF96D10AF
:105A2000002DE9D1204600F03FF901202169884787
:105A30002646304600F040F901203169884730465B
:105A400000F02AF9304600F047F93046FEF7DEF85C
:105A500008B9012000E000208046304600F04AF9F5
:105A6000304600F021F94046BDE8F08110B50F48FE
:105A70000F4908600420486000210D488160C16022
:105A80004FF4502101614FF4001141610021017672
:105A90000121417681760021C17601774177FEF7B9
:105AA000A1FA08B1FEF7AFF810BD00000064004095
:105AB000B802002000B585B000200190029003904C
:105AC000049000BF4348806940F02000414988614C
:105AD0000846806900F02000009000BF00BF00BFB2
:105AE0000846806940F0040088610846806900F03B
:105AF0000400009000BF00BF00BF0846806940F06E
:105B0000080088610846806900F00800009000BF26
:105B100000BF012230213048FEF714FE012242F27C
:105B2000E0712E48FEF70EFE00224FF480412B4814
:105B3000FEF708FE00224FF400412748FEF702FE60
:105B400048F23000019001200290002003900220D2
:105B5000049001A92048FEF753FC4FF480600190A7
:105B600011200290002003900220049001A91B48FC
:105B7000FEF746FC4FF48050019019480290002037
:105B8000039001A91548FEF73BFC42F2E03001907A
:105B900001200290002003900320049001A90F48E7
:105BA000FEF72EFC4FF4804001900120029000206F
:105BB00003900220049001A90848FEF721FC01226D
:105BC00011462820FEF742FE2820FEF72FFE05B0E2
:105BD00000BD00000010024000080140000C014020
:105BE0000000111010B50B480B4908604FF4E1306C
:105BF0004860002108488160C16001610C21416159
:105C000000218161C161FFF71DFB08B1FDF7FBFFBA
:105C100010BD000000380140E002002010B50B4824
:105C20000B4908604FF4E13048600021084881606A
:105C3000C16001610C21416100218161C161FFF7F7
:105C400001FB08B1FDF7DFFF10BD0000004400407C
:105C50002403002000BFFEE700BFFEE708B50849A7
:105C60000968C9084FF47A72B1FBF2F1414300911F
:105C700000BF00BF00994A1E00920029F9D108BD5B
:105C80000C00002010B50446224610210148FEF702
:105C900059FD10BD0008014010B50446618901227C
:105CA0002068FEF74FFD10BD10B504466189002243
:105CB0002068FEF747FD10BD10B50446218901227A
:105CC0002068FEF73FFD10BD10B504462189002273
:105CD0002068FEF737FD10BD1FB5044620890090EF
:105CE0000020019002900320039069462068FEF78F
:105CF00087FB1FBD1FB5044620890090112001902D
:105D0000002002900320039069462068FEF778FB8C
:105D10001FBD10B502F0FCFF04F01EFBBDE81040F3
:105D200003F010B800B58FB0282105A8FAF79FFA44
:105D300014216846FAF79BFA0120059000040690AA
:105D4000002007900120099002200C90C1030D91C2
:105D50004FF4E0110E9105A8FEF700FF08B1FDF722
:105D600052FF0F20009002200190002002904FF47B
:105D7000806003900020049002216846FEF7B8FD81
:105D800008B1FDF740FF0FB000BD000010B50021C5
:105D900000200022214B5B6803F00C0121B1042993
:105DA00006D0082928D107E01D4B1E4C236027E0B0
:105DB0001B4B1C4C236023E0184B5B6803F47010F2
:105DC000164B5B6803F48032022303EB904022B948
:105DD000154B4343134C23600DE0104B5B6803F4F9
:105DE000003323B1104B43430E4C236003E00C4BB4
:105DF00043430C4C236003E0094B0A4C236000BF73
:105E000000BF064B5B68C3F30313084CE15C054B12
:105E10001B68CB40034C236010BD00000010024003
:105E200000127A000C00002000093D003AAE000884
:105E3000704700002DE9F14F94B0002012902648E1
:105E400011902648109026480F9026480E900E98E4
:105E5000FAF7EFFCCDE90A010F98FAF7EAFCCDE971
:105E6000020111991498FAF7C5FA0190FAF7E1FCCA
:105E7000804601F03BFF0646DDE90223FAF711FCFC
:105E8000CDE904014FF07E501099FAF7B3FA0646B7
:105E9000FAF7CFFC0446DDE90423FAF7E9FA0246F3
:105EA0000B46CDE9060100200F49FAF7FAFBCDE9D0
:105EB0000801DDE90A23FAF77CFB00220B4BCDE950
:105EC0000C01FAF7D5FA8246FAF7F6FC129012980E
:105ED00015B0BDE8F08F000000401C463313954319
:105EE00000E07645339388430000F03F0000E03F38
:105EF00070B505466C6A0020E085E0842046FFF717
:105F00007AF870BD0168C96821F490710268D160A7
:105F10000168496921F0010102685161016B0129A1
:105F200005D10168C96821F010010268D160202103
:105F300080F83E1000210163704710B504462068C8
:105F4000C06820F040002168C860202084F83D002F
:105F50002046FFF71FFB002010BDF8B5044694F85B
:105F60003E00222869D1A068B0F5805F0CD120697D
:105F700050B90025A66A20684068C0F30800308048
:105F8000A06A801CA06215E0A56A0026A068B0F592
:105F9000805F03D0A06828B9206918B920684068DC
:105FA000287004E02068406800F07F002870A06A34
:105FB000401CA062E08D401E80B2E085A8BB206836
:105FC000C06820F020002168C8602068C06820F404
:105FD00080702168C8602068406920F00100216855
:105FE0004861202084F83E00206B01281ED100204B
:105FF00020632068C06820F010002168C860206815
:10600000006800F0100010280AD100BF00200090A6
:1060100020680068009020684068009000BF00BFC2
:10602000A18D2046FEF7E6FF03E004E02046FFF7DF
:10603000E5F90020F8BD0020FCE70220FAE70000A7
:1060400070B504462168096921F44051E2681143A2
:10605000226811612269A1681143626941EA02055F
:106060002168C96841F20C62914329432268D160DA
:106070002168496921F44071A26911432268516184
:106080002D4A2168914202D1FEF70EFD01E0FEF794
:10609000FBFC00EBC00101EB001162689200B1FB58
:1060A000F2F100EBC00202EB001263689B00B2FB4E
:1060B000F3F26423B2FBF3F202EBC20303EB02122E
:1060C000A1EB8201322202EB01116422B1FBF2F159
:1060D00001F0F00100EBC00202EB001263689B00CC
:1060E000B2FBF3F26423B2FBF3F201EB021200EB1A
:1060F000C00101EB001163689B00B1FBF3F100EB01
:10610000C00303EB00136668B600B3FBF6F3642626
:10611000B3FBF6F303EBC30606EB0313A1EB83011A
:10612000322303EB01116423B1FBF3F101F00F0102
:1061300011442268916070BD0038014010B50346DB
:1061400099629A85DA8500201864222083F83E003F
:1061500000BF002083F83C0000BF1868C06840F40E
:1061600080701C68E0601868406940F001001C689D
:1061700060611868C06840F020001C68E060002082
:1061800010BD014691F83D00212828D18868B0F55E
:10619000805F0BD1086948B90A6A1088C0F308000B
:1061A0000B685860086A801C086205E00B6A581C7E
:1061B000086218780B685860C88C401E80B2C8848A
:1061C00058B90868C06820F080000B68D86008687B
:1061D000C06840F040000B68D86000207047022083
:1061E000FCE72DE9F04104460D4617469846069E09
:1061F00021E0701CF8B12EB1FEF7AAFAA0EB08005E
:10620000B04218D92068C06820F4D0702168C860F6
:106210002068406920F0010021684861202084F84E
:106220003D0084F83E0000BF002084F83C0000BF21
:106230000320BDE8F081206800682840A84201D111
:10624000012000E00020B842D3D00020F1E7000098
:1062500010B50248FEF7D0FE10BD00002403002058
:1062600010B50248FDF797FD10BD0000B8020020F0
:1062700000BFFEE70FB4084B10B504A902AA0398AB
:1062800000F0DAF9044602A9002000F0C5FD20461E
:1062900010BC5DF814FB0000196E0008024800688D
:1062A000C0F30220704700000CED00E010B500289C
:1062B00004DB0A07130E054A135406E00A07140EFE
:1062C000034A00F00F031B1FD45410BD00E400E08C
:1062D00018ED00E02DE9F0414F1E00EBC701044628
:1062E000D1E9000115461E4637F006020DD02A46B8
:1062F0003346FAF764F97F1E04EBC703D3E90023A2
:10630000FAF7B6F837F00602F1D1022F25D0042FA4
:1063100013D0062F18BFBDE8F0812A463346FAF79E
:106320004EF9D4E90A23FAF7A3F82A463346FAF7D6
:1063300046F9D4E90823FAF79BF82A463346FAF7D8
:106340003EF9D4E90623FAF793F82A463346FAF7DA
:1063500036F9D4E90423FAF78BF82A463346FAF7DC
:106360002EF9D4E90223FAF783F82A463346FAF7DE
:1063700026F9D4E90023BDE8F041FAF779B8000026
:106380000022134610460149FAF78BB90000F03F8E
:106390000122FAF7BDBB0022134610461146FAF758
:1063A00080B90000002807D00F4910F0FF0F05D07A
:1063B000C0B2085C401C70470020704710F47F4F4B
:1063C00004D0C0F30720085C0930704710F47F0F39
:1063D00004D0C0F30740085C1130704701EB106037
:1063E0000078193070470000AFAF000802E008C81D
:1063F000121F08C1002AFAD170477047002001E03F
:1064000001C1121F002AFBD170470000014908603A
:1064100070470000B40200202DE9FF5F82B0002128
:10642000DDE90430020DDDF840B0034318D044F636
:106430001050A2F2FF3242431514119801281FD0C8
:10644000A5EB0B00401C5FEA000A4FF000064E4F20
:10645000DFF83891B046504615D5CAF1000413E074
:10646000119801244AA3012801D16FEA0B01029877
:10647000119AC0E90031C0E9024206B0BDE8F09FC0
:10648000CBF10000DFE704460021404A491842EB07
:106490000450CDE9001012E0E00707D032463B4639
:1064A00040464946FAF78BF88046894632463B46D5
:1064B00010461946FAF783F806460F466410002C7A
:1064C000EAD1DDE90401DDE90023BAF1000F06DAC3
:1064D000FAF775F842464B46FAF771F805E0FAF715
:1064E000E0F842464B46FAF7DCF804460E46002236
:1064F000284BFAF7C9F903D84FF0FF30014607E0FF
:106500000022254B20463146F9F7B2FFFAF717FB78
:10651000102409E0002C0ADB0A220023FAF712FA01
:10652000039B30321A55641E50EA0102F2D1641CFA
:10653000039AC4F111031444119A012A03D00122D1
:1065400008430DD10AE0084304D000204FF0110B9E
:10655000119072E7A3EB0B056D1E0DE05B4504DDAA
:106560004FF0000205F1010504E003DA4FF00002EC
:10657000A5F10105002AECD002981199C0E9023179
:10658000C0E9004579E70000000014400000F03F3A
:10659000300000000000F0430000E03FF0B589B09B
:1065A00005460F4616460024002D05D140F237124D
:1065B0001D491EA002F0BCF83EB94FF49C721A4966
:1065C0001BA002F0B5F800E0641C295D202903D06F
:1065D000092901D0BC42F7D3D4B12146284601F0A5
:1065E0004DFE0446C4B10021009101910291039136
:1065F00004910591069107916A463946284601F0B3
:10660000ABFE68B16946A047306009B00020F0BD1C
:1066100009B04FF0FF30F0BD09B04FF0FF30F0BDD2
:1066200009B04FF0FF30F0BDDDB20008636D6400CB
:1066300072657470000000002DE9FF4F95B09A4616
:10664000884606460025EEE1252877D10024274616
:10665000F94A0121039400E0044316F8013F203B6E
:1066600001FA03F01042F7D130782A2811D06FF0E8
:106670002F033078A0F13002092A16D8039A44F08B
:10668000020402EB820203EB42021044761C0390E8
:10669000EFE758F8042B0392002A03DA504244F43F
:1066A0000054039044F00204761C30782E2816D152
:1066B00016F8010F44F004042A280DD06FF02F02C1
:1066C0003078A0F13003092B09D807EB870302EBE0
:1066D0004303C718761CF3E758F8047B761C307820
:1066E0006C280FD006DC4C2817D068280DD06A28FB
:1066F00014D104E0742810D07A280FD10DE044F4AE
:1067000000140AE044F4801401E044F44014727868
:10671000824202D104F58014761C761C30786628FB
:106720000BD013DC582877D009DC002875D0452819
:10673000F6D04628F4D047281AD193E118E0632810
:1067400035D0642879D0652812D18BE1702873D0B8
:1067500008DC6728F1D069286FD06E280DD06F282B
:1067600006D1ACE073282CD0752874D0782853D08B
:106770005246179990476D1C54E1C4F30250022809
:1067800009D003280DD0D8F8001004280DD00D60D2
:1067900008F1040846E1D8F80010EA17C1E90052F0
:1067A000F6E7D8F800100D80F2E70D70F0E718F862
:1067B000041B8DF8001000208DF80100EB4601202D
:1067C00003E058F804BB4FF0FF3061074FF00001C1
:1067D00002D40DE009F101018946B9420FDA814581
:1067E000F8DB1BF809100029F4D108E009F10101D8
:1067F00089468142FADB1BF809100029F6D103987B
:106800005346A0EB090721463846179A00F080FA54
:10681000284400EB090507E044E008E10DE01BF81F
:10682000010B524617999047B9F10109F7D2534627
:1068300021463846179AF2E039E00A21C4F30252A1
:106840004FF0000B0091022A06D058F8040BC11734
:10685000032A09D00AE023E008F1070020F007022C
:10686000F2E80201904605E000B2C117042A01D106
:1068700040B2C117002906DA0A460021404261EB06
:1068800002012D2202E0220504D52B228DF80420DE
:10689000012203E0E20701D02022F7E7914657E00A
:1068A0000A2100E010214FF0000B00910BE01021B5
:1068B0004FF0000B44F004040827009103E0082087
:1068C0004FF0000B0090C4F30252022A05D058F892
:1068D000040B0021032A08D008E008F1070020F08B
:1068E0000702F2E80201904603E080B2042A00D1D8
:1068F000C0B24FF0000922072AD53278702A07D09B
:10690000DDF800C08CF0100C5CEA0B0C05D00EE03A
:1069100040228DF80420012208E050EA010306D04D
:1069200030238DF804308DF8052002229146009B1B
:1069300083F0080353EA0B030AD150EA010201D1A4
:10694000620705D530228DF804204FF001097F1E23
:106950003278582A04D039A20C920CAA02920BE089
:106960003BA2F9E75B46009AF9F7ECFF0C9B9B5CB6
:10697000029A521E0292137050EA0102F2D102985A
:1069800004A9081A00F1200B600702D524F4803412
:1069900000E001275F4502DDA7EB0B0000E00020CF
:1069A00000EB0B01009003984944401A0390E00368
:1069B00006D453462146179A039800F0A9F90544D6
:1069C000002706E001A85246C05D179990476D1C4C
:1069D0007F1C4F45F6DBE0030CD553462146179A42
:1069E000039800F095F9054404E0302052461799C9
:1069F00090476D1C0099481E00900029F5DC08E0C6
:106A00000298029952460078491C029117999047C2
:106A10006D1CBBF10001ABF1010BF1DC5BE100F09F
:106A200065F90544761C307800287FF40DAE19B066
:106A30002846BDE8F08F00000928010030313233CC
:106A400034353637383961626364656600000000AA
:106A50003031323334353637383941424344454694
:106A600000000000600700D4062708F1070020F0AE
:106A70000700F0E80223804603F0004C5FEA0C00B8
:106A800001D097A009E0200501D596A005E0E00718
:106A900001D095A001E0AFF24C001390307823F0C4
:106AA000004365280CD006DC452809D046281DD0B7
:106AB00047287FD13BE0662818D067287AD136E096
:106AC0000021112F01DB112000E0781CCDE900012D
:106AD00004A90CA8FFF7A0FCDDE90D010C9A4FF00A
:106AE000000B07F10109109200914EE04FF00040B9
:106AF0000097CDE9011004A90CA8FFF78DFCDDE992
:106B00000D020C9B0F994FF0000B914610930092D1
:106B100011B9791C00EB0109B7EB090003D4C0F1EE
:106B2000FF3B07F10109A9EB0700019042E0012FAB
:106B300000DA01270021112F01DD112000E0384685
:106B4000CDE9000104A90CA8FFF766FCDDE90D0101
:106B50000C9A00914FF0000BB946109221070FD408
:106B6000009A4A4503DA914601E0A9F10109B9F119
:106B7000010F05DD109AA9F10101515C3029F4D013
:106B8000B84202DA10F1040F03DA0121CDE9011055
:106B900010E0002803DC8344A9EB000102E0411C63
:106BA000494500DD8946A0EB0B00401C01904FF0E9
:106BB00000400290200705D40198484502DB4FF0C1
:106BC000FF30019000208DF84B0002980DF14B072B
:106BD000B0F1004F25D002200C902B200D90029890
:106BE00000280CDA404202902D200D9007E00A2187
:106BF0000298F9F791FE3031029007F8011D0C99C7
:106C0000481E0C900029F2DC02980028EFD1791E72
:106C10000D980870307800F0200040F0450007F82B
:106C2000020D11A8C01BC01D02901398007800B17E
:106C3000012000EB0901019801EBE0710298014489
:106C40000398401A401E0390E00306D453462146A1
:106C5000179A039800F05CF805441398007818B16F
:106C60005246179990476D1CE00323D553462146A1
:106C7000179A039800F04CF805441BE0BBF1000F95
:106C800007DB0098584504DD1098179910F80B00A1
:106C900001E0179930205246904701980BF1010B03
:106CA000401E05F10105019004D12E20524617998E
:106CB00090476D1CB9F10001A9F10109DEDC05E086
:106CC00017F8010B5246179990476D1C0299481E00
:106CD00002900029F4DC53462146179A03989EE659
:106CE0002D0000002B000000200000002DE9F041E5
:106CF000044600251E461746880404D405E039469C
:106D00002020B0476D1C641EF9D52846BDE8F081EF
:106D10002DE9F041044600251E469046C80301D5E2
:106D2000302700E02027880404D505E04146384696
:106D3000B0476D1C641EF9D52846BDE8F0810000FF
:106D400070B582B011469C46099E089D069B079A25
:106D5000044604F11400406000602162C4F824C0BD
:106D6000A362E2622321184602F0ABF9E16AA06A4D
:106D7000134B0844021F616A206A01F0A9FFE06119
:106D8000202D04D3A7220F490FA001F0D1FC84F8D5
:106D9000365084F835500020A0636664A6642063F2
:106DA00084F83400A067E0670090019023460F4A02
:106DB000214604F14C0003F061FC02B0002070BDDC
:106DC000A59D0008C1B100087072696F726974797D
:106DD000203C2052545F5448524541445F50524930
:106DE0004F524954595F4D4158000000E9A1000835
:106DF000DDF800C02CF0010C80F809C0C16102620E
:106E000000218162436200EBC102143252601260C1
:106E1000491C0129F7DB70470A68531C0B6010708E
:106E2000704770B50446F9F77FF90546A16F09B1BF
:106E3000204688472846BDE87040F9F779B9000038
:106E400010B51DA001F0C4FF1E4C21781EA001F05A
:106E5000BFFF207810F0010F02D021A001F0B8FF91
:106E6000207810F0020F02D020A001F0B1FF2078AE
:106E700010F0040F02D020A001F0AAFF207810F03B
:106E8000080F02D020A001F0A3FF207810F0100F0F
:106E900002D020A001F09CFF207810F0800F06D0D7
:106EA0001E480168BDE810401DA001F091BFBDE87B
:106EB00010401FA001F08CBF627573206661756C75
:106EC000743A0A0029ED00E05343425F43465352AF
:106ED0005F424653523A3078253032582000000045
:106EE000494255534552522000000000505245433C
:106EF0004953455252200000494D50524543495391
:106F00004552522000000000554E53544B455252FA
:106F10002000000053544B455252200038ED00E051
:106F20005343422D3E424641523A253038580A00DA
:106F30000A00000010B500F0A3FB002010BD10B542
:106F400000F036FD002010BD2DE9F04104460D464D
:106F500026682F6839463046F9F7D4FC02D2012062
:106F6000BDE8F0810020FBE7002106E00A2100BF18
:106F70000A1EA1F1010399B2FAD1021EA0F101008B
:106F8000F4D1704770B51448144C4FF000054169B6
:106F900091F8211011F0020F07D0016941B1802250
:106FA0002046F9F77BF9204670BD25700B4870BD6F
:106FB00001F0D0F920B10AA000682060257105E039
:106FC00009A0016821608088A080A57108A10348FC
:106FD000F9F758F9014870BD9C020020902F00205D
:106FE0006D7368200000000066696E736820000001
:106FF0003E00000001F034BD70B50446084D6969DB
:10700000002904D1A422074907A001F091FB696976
:1070100091F8210064F3410081F8210070BD000067
:107020009C02002001B300087368656C6C20213D50
:107030002052545F4E554C4C00000000014A106035
:10704000516070479C02002030B583B01649174844
:10705000FFF7F4FF7821012001F0A2FB144D6861D5
:10706000D8B10A201521009101904FF480630022CD
:10707000104911A002F069FE044600231A4610A12F
:10708000686902F0EFFB0120FFF7B6FF14B120465C
:1070900003F006F803B0002030BD0BA001F098FE0D
:1070A00003B04FF0FF3030BDF0BA0008ACB90008B3
:1070B0009C020020E1700008747368656C6C00002D
:1070C00073687278000000006E6F206D656D6F72DE
:1070D0007920666F72207368656C6C0A000000008E
:1070E0009F4E706990F8211041F0010180F8211045
:1070F000FFF748FF01F06CFE01274FF00208002562
:10710000FFF778FF04462000FAD41B2C07D07369E0
:1071100093F82000012806D002280CD015E07069F1
:1071200080F82070ECE75B2C02D083F820500CE054
:1071300083F82080E4E783F82050412CE0D0422CF3
:10714000DED0442C46D0432C52D0002CD8D0FF2C7B
:10715000D6D0092C5FD07F2C7CD0082C7AD00D2C77
:1071600076D00A2C74D0B3F87200502801D3A3F85B
:107170007250B3F87400B3F87210884269D20A1AD8
:1071800003F1220101442333184401F07FFF7069A9
:10719000B0F8741022300C54706990F8211011F07E
:1071A000010F06D0B0F87410223001446DA001F038
:1071B0000FFE7069B0F87440B0F87200A0427DDD37
:1071C00069A001F005FE641C7069B0F87200A0426D
:1071D000F6DCB1E0B3F87400002891D062A001F0B1
:1071E000F7FD7069B0F87410491EA0F8741087E7B5
:1071F000B3F87400B3F87210884281D203F122010F
:10720000415C5AA001F0E4FD7069B0F87410491CAB
:10721000A0F8741074E70024B3F87400002808DDA7
:1072200051A001F0D5FD641C7069B0F87400A04253
:10723000F6DC7069223003F023FD70692230F9F723
:1072400039F87169A1F87200A1F8740058E701E0FB
:1072500043E064E0B3F8740000283FF451AFB3F8A2
:107260007210491E89B2A3F87210401E80B2A3F8B2
:107270007400814228D90A1A03F123010144223300
:10728000184401F003FF7069B0F8721022300D54F9
:107290007069B0F874102230014435A001F098FDF7
:1072A0007069B0F87440B0F87200A042FFF628AFE1
:1072B0002DA001F08DFD641C706900E03CE0B0F889
:1072C0007200A042F4DA1BE72BA001F081FD706987
:1072D000B0F8721022300D5412E701F03BF801288B
:1072E0000ED1706990F8210010F0010F02D023A098
:1072F00001F06EFD7069B0F87210223000F08CFF62
:10730000FFF740FE01F064FD706950212230F8F76C
:10731000AEFF7069A0F87250A0F87450F0E603F167
:1073200022000C54706990F8210010F0010F03D076
:1073300021460EA001F04CFD7069B0F87210491C96
:1073400089B2A0F87210B0F87420521CA0F8742012
:107350005029FFF4D5AEA0F87250A0F87450CFE6D3
:107360009C02002025730000080000002563000037
:107370000825732020080000082008000A000000EB
:1073800010B5124C206810F0020F02D010A001F0CE
:107390001FFD206810F0804F0ED01348007808B110
:1073A000FFF74EFD1148007808B100F06FFE10485D
:1073B000008808B103F0CEFC206810F0004F04D024
:1073C000BDE810400BA001F003BD10BD2CED00E0A6
:1073D0006661696C656420766563746F72206665AA
:1073E0007463680A0000000029ED00E028ED00E069
:1073F0002AED00E06465627567206576656E740A43
:107400000000000010B502A001F0E2FC002010BD59
:1074100048656C6C6F2052542D546872656164210C
:107420000A00000070B50DA001F0D2FC10480468FD
:10743000104D286884420ED202220FA12068F8F76E
:1074400040FF20B10DA06268216801F0C1FC0C343E
:1074500028688442F0D3002070BD00002D2D4675B1
:107460006E6374696F6E204C6973743A0A00000091
:107470009C020020A00200205F5F0000252D313615
:1074800073202D2D2025730A000000002DE9F04106
:1074900090B0002734A4082302AA04210AA800F00F
:1074A000A1F84FF008082246414631A001F090FCB7
:1074B0000724384801F08CFC641EFAD236A001F093
:1074C00087FC02AE0AA9384600F09EF80746002560
:1074D0000E98002826DD56F82500A0F10C04F8F7D8
:1074E00023FE217A9DF8302021F08001914202D0C4
:1074F000F8F71EFE12E0F8F71BFE04F11400016815
:10750000814201D1012000E0002088B1E0690090B3
:1075100023460822414628A001F05AFC6D1C0E9813
:10752000A842D8DC002FCDD110B00020BDE8F081FA
:1075300004F1140C00236246914204D012685B1CD3
:1075400010686045FAD1E069019300902346082253
:1075500041461EA001F03CFC04F1140003F0ACFB1A
:107560000BA001F035FCD9E76576656E740000006C
:10757000252D2A2E732020202020207365742020A2
:10758000202073757370656E642074687265616421
:107590000A000000DC7A000820202D2D2D2D2D2D35
:1075A0002D2D2D2D202D2D2D2D2D2D2D2D2D2D2D18
:1075B0002D2D2D0A00000000252D2A2E2A732020B3
:1075C00030782530387820300A000000252D2A2E0A
:1075D0002A73202030782530387820253033643ADB
:1075E000000000002DE9F04104460D4616461F46F6
:1075F000284601F0EBFF001D206025726660E76001
:1076000000202061BDE8F0812DE9F0410D46002603
:1076100000212961E968002909D0297A39B12F6848
:1076200040B10446F8F780FD014636B113E0002072
:10763000BDE8F0813C460126F4E7A4F10C002A7A6B
:10764000007A20F08000904205D00846F8F770FDDF
:107650000020BDE8F081002668682468BC4201D1A2
:10766000002405E0761C40F8044BEA68B242F4D1ED
:107670000846F8F75DFD2E612046BDE8F081000068
:1076800010B5074C07A0E16801F0A2FB0AA0216930
:1076900001F09EFB6169BDE810400CA001F098BBB1
:1076A00004020020746F74616C206D656D6F7279D7
:1076B0003A2025640A00000075736564206D656DCD
:1076C0006F7279203A2025640A0000006D617869A4
:1076D0006D756D20616C6C6F6361746564206D65A0
:1076E0006D6F72793A2025640A0000002DE9F0419F
:1076F00090B000273BA4082302AA06210AA8FFF79E
:1077000071FF4FF008082246414639A001F060FBA6
:1077100007243E4801F05CFB641EFAD23CA001F055
:1077200057FB02AE0AA93846FFF76EFF0746002551
:107730000E98002833DD56F82500A0F10C04F8F768
:10774000F3FC217A9DF8302021F08001914202D093
:10775000F8F7EEFC1FE0F8F7EBFC04F11400D0F8AA
:1077600000C0844501D1012000E00020E8B104F10F
:10777000140100200A468C4504D01268401C13688E
:107780008B42FAD1A18C00910190234608224146F8
:1077900025A001F01DFB6D1C0E98A842CBDC002F2C
:1077A000C0D110B00020BDE8F08104F11400002326
:1077B0000246844504D012685B1C11688142FAD1EC
:1077C000A08C019300902346082241461BA001F0A3
:1077D000FFFA04F1140003F06FFA1DA001F0F8FAAB
:1077E000D9E700006D73677175657565000000006D
:1077F000252D2A2E7320656E74727920737573702F
:10780000656E64207468726561640A00DC7A000841
:10781000202D2D2D2D20202D2D2D2D2D2D2D2D2DBF
:107820002D2D2D2D2D0A0000252D2A2E2A732025E1
:10783000303464202025640A00000000252D2A2E03
:107840002A732025303464202025643A000000008B
:107850000A0000002DE9F04190B000273BA4082366
:1078600002AA02210AA8FFF7BDFE4FF0080822462F
:10787000414639A001F0ACFA07243E4801F0A8FACD
:10788000641EFAD23CA001F0A3FA02AE0AA938465F
:10789000FFF7BAFE074600250E98002833DD56F89C
:1078A0002500A0F10C04F8F73FFC217A9DF8302068
:1078B00021F08001914202D0F8F73AFC1FE0F8F77E
:1078C00037FC04F11400D0F800C0844501D1012038
:1078D00000E00020E8B104F1140100200A468C45C4
:1078E00004D01268401C13688B42FAD1A18B00911E
:1078F000019023460822414625A001F069FA6D1C3B
:107900000E98A842CBDC002FC0D110B00020BDE8FB
:10791000F08104F1140000230246844504D012686B
:107920005B1C11688142FAD1A08B01930090234621
:10793000082241461AA001F04BFA04F1140003F0AA
:10794000BBF90BA001F044FAD9E7000073656D6143
:1079500070686F7265000000252D2A2E7320762036
:10796000202073757370656E64207468726561643D
:107970000A000000DC7A0008202D2D2D202D2D2D51
:107980002D2D2D2D2D2D2D2D2D2D2D0A00000000FE
:10799000252D2A2E2A7320253033642025640A00E1
:1079A000252D2A2E2A7320253033642025643A00A1
:1079B0002DE9F043AFB0002745A4082322AA0121F6
:1079C0002AA8FFF70FFE4FF008082246414642481A
:1079D00001F0FEF9072441A001F0FAF9641EFAD281
:1079E0003FA001F0F5F922AE2AA93846FFF70CFEB8
:1079F000074600252E98002864DD56F82500A0F1E2
:107A00000C04F8F791FB8146207A9DF8B01020F025
:107A10008000884203D04846F8F78AFB4EE0802277
:107A2000214602A8F8F70AFC4846F8F781FB94F8CB
:107A30003500009023460822414639A001F0C8F9DC
:107A400094F8340000F00F01012907D0022909D071
:107A500061B104290ED0032910D012E033A001F047
:107A6000B7F90EE034A001F0B3F90AE035A001F057
:107A7000AFF906E036A001F0ABF902E037A001F063
:107A8000A7F9A16A8C469CF80000232803D11CF8B2
:107A9000010F2328FBD0E26AACEB0100101A64232B
:107AA0005843B0FBF2FC236BA06C01930090E0699B
:107AB0006346081A81182CA001F08AF96D1C2E98D3
:107AC000A8429ADC002F8FD12FB00020BDE8F083B0
:107AD00074687265616400007CB500082D000000C8
:107AE000202D2D2D20202D2D2D2D2D2D2D202D2DFA
:107AF0002D2D2D2D2D2D2D2D202D2D2D2D2D2D2DC3
:107B00002D2D2D20202D2D2D2D2D2D20202D2D2DD9
:107B10002D2D2D2D2D2D2D202D2D2D0A0000000079
:107B2000252D2A2E2A7320253364200020726561BA
:107B300064792020000000002073757370656E6406
:107B40000000000020696E69742020200000000001
:107B500020636C6F73652020000000002072756E3A
:107B60006E696E670000000020307825303878207C
:107B700030782530387820202020253032642525A3
:107B800020202030782530387820253033640A00D2
:107B90002DE9F04190B000272BA4082302AA0A2166
:107BA0000AA8FFF71FFD4FF008082246414628A00B
:107BB00001F00EF90724304801F00AF9641EFAD2E8
:107BC0002EA001F005F902AE0AA93846FFF71CFD08
:107BD000074600240E9800282ADD56F82400A0F15C
:107BE0000C05F8F7A1FA297A9DF8302021F08001E0
:107BF000914202D0F8F79CFA16E0F8F799FAA96AD0
:107C0000686A019100902B460822414624A001F0A9
:107C1000DFF8687A10F0010F03D027A001F0D8F840
:107C200002E028A001F0D4F8641C0E98A042D4DC35
:107C3000002FC9D102F08AFB014626A001F0C8F846
:107C400010B00020BDE8F08174696D65720000001D
:107C5000252D2A2E732020706572696F6469632058
:107C6000202074696D656F757420202020202020ED
:107C7000666C61670A000000DC7A0008202D2D2D5B
:107C80002D2D2D2D2D2D2D202D2D2D2D2D2D2D2D31
:107C90002D2D202D2D2D2D2D2D2D2D2D2D2D0A0071
:107CA000252D2A2E2A7320307825303878203078F8
:107CB000253038782000000061637469766174654E
:107CC000640A000064656163746976617465640ABE
:107CD0000000000063757272656E74207469636BD6
:107CE0003A3078253038780A000000002DE9F04D50
:107CF000C84A002490B0914205DA21F00043934233
:107D000001D805D120B110B0BDE8F04DFEF740BB61
:107D1000B1F5801F1BDA53EA000209D0002911DAFD
:107D20000120FEF773FB10B0BDE8F04DFEF733BB4A
:107D30000220FEF76BFBFEF723FB10B081F0004141
:107D4000BDE8F08D6FF035043622F8F7E1FE04EB64
:107D50002152C1F31308B049A2F2FF33414401F4A8
:107D6000801282F07F6103EB225281F04051009239
:107D700041EA08010022A94BF8F71BFC044608F170
:107D80000200A74EC0F313000D467E44032867D2BD
:107D9000D6E900232046F8F75FFD1ED100980028A1
:107DA00002BFD6E9000110B0BDE8F08DF8F7F6FC8F
:107DB00007460C469B4A9C4BF8F701FC06460D46CD
:107DC0009A4A9B4B38462146F8F7F9FB10B03246E9
:107DD0002B46BDE8F04DF8F74BBB4FF05532954BB5
:107DE00020462946F8F7EBFB0022934BF8F7E4FB1B
:107DF00006460F4622462B4610461946F8F7DFFB8B
:107E000032463B46F8F7DBFB064600980F46F0B1DA
:107E1000F8F7C4FC80468A46824A834BF8F7CFFBCA
:107E200032463B46F8F7C8FB22462B46F8F7C1FB23
:107E300005460C467D4A7E4B40465146F8F7BFFB4F
:107E400010B02A462346BDE8F04DF8F7B2BB0B460A
:107E500010B0324620462946BDE8F04DF8F7A9BBE0
:107E600000224FF080432046F8F702FB02460B4603
:107E700020462946F8F715FC06460F460098F8F705
:107E80008DFCCDE9040132463B4610463946F8F7F1
:107E900096FB0C9069480C9A4044019009910B465E
:107EA0001046F8F78CFB8246024665488B46C8F1BF
:107EB00051080B4608F5D72803217844FEF70AFA43
:107EC00052465B46F8F77BFB0A905E480D9152469E
:107ED0005B4604217844FEF7FDF9099B0C9AF8F7FC
:107EE0006EFB844601980D9B40EA080860460A9A9A
:107EF000F8F7BEFA83460891B8F1000F4EDD4FF057
:107F0000FF3220462946F8F703FE22462B46F8F7B3
:107F100056FB804600988A4660B3DDE90401414A79
:107F2000414BF8F74CFB099100905A4640465146A8
:107F3000089BF8F79DFA32463B46F8F740FB099B51
:107F4000009AF8F795FA42465346F8F735FB224671
:107F50002B46F8F72EFB04460D46DDE90401334AB3
:107F6000334BF8F72CFB10B022462B46BDE8F04D02
:107F7000F8F71FBB5A464046089BF8F779FA324695
:107F80003B46F8F71CFB42465346F8F715FB10B08A
:107F900022462B46BDE8F04DF8F70EBB009840B3E3
:107FA000DDE904011F4A204BF8F709FB80468A46A9
:107FB0005A4620462946089BF8F7FBFA32463B46CC
:107FC000F8F7FDFA42465346F8F7F3FA22462B46F5
:107FD000F8F7EFFA04460D46DDE90401134A144BA5
:107FE000F8F7EDFA10B022462B46BDE8F04DF8F751
:107FF000E0BA0B465A4620462946F8F7DAFA3246E6
:108000003B46F8F7DCFA10B022462B46BDE8F04DAF
:10801000F8F7D2BA0000F07F645F09000000F03F7B
:10802000E2350000763C7935EF39EA3D0000E0FEAC
:10803000422EE63F5555D53F0000E03F86EBF9FF65
:108040007A34000078340000FCF788FBFDF76AFE04
:10805000FDF730FDFDF7C6FDFDF7E0FDFDF706FD80
:10806000FAF73AFD07E020210348FCF761FB4FF4E3
:108070007A7001F07FFFF6E7000C014010B500F0C8
:10808000ADFBBDE81040FFF7DFBF000010B51AA040
:1080900000F09EFE1D4C21781DA000F099FE207876
:1080A00010F0010F02D020A000F092FE207810F016
:1080B000020F02D01FA000F08BFE207810F0080FF6
:1080C00002D01FA000F084FE207810F0100F02D024
:1080D0001EA000F07DFE207810F0800F06D01E4814
:1080E0000168BDE810401DA000F072BEBDE8104060
:1080F0001EA000F06DBE00006D656D206D616E61AB
:108100006765206661756C743A0A000028ED00E02E
:108110005343425F434653525F4D4653523A307881
:1081200025303258200000004941434356494F4C06
:10813000200000004441434356494F4C20000000BA
:108140004D554E53544B4552522000004D53544B05
:10815000455252200000000034ED00E05343422D10
:108160003E4D4D41523A253038580A000A00000071
:108170002DE9F04781460025002699F800000028E7
:108180000ED020480468DFF88080D8F800008442D0
:108190002DD206221DA12068F8F793F810BB05E048
:1081A000BDE8F0470021084600F096B82068871D1A
:1081B0004846F8F77FF8024639464846F8F781F80E
:1081C00080B925B93E463046F8F774F80546394679
:1081D000304602F089FDA84200DA054639460DA076
:1081E00000F0F6FD0C34D8F800008442D1D3002E04
:1081F00006D02A4631464846BDE8F04701F0CABCE1
:10820000BDE8F0879C020020A00200205F5F636D44
:10821000645F000025730A0038B5054601E06D1C57
:10822000491E21B128782028F9D00928F7D031B18A
:108230006A462846FEF7B2F918B12C4604E0002041
:1082400038BD009838BD641C2078202801D0002853
:10825000F9D100202070294602A000F0B9FD4FF0AE
:10826000FF3038BD25733A20636F6D6D616E6420F9
:108270006E6F7420666F756E642E0A002DE9F047EC
:1082800081468846002610480468104F38688442AA
:1082900015D208F1060506220DA12068F8F711F89D
:1082A00048B920684246801D4946F8F70AF810B9D7
:1082B0002068405D30B10C3438688442EBD33046DE
:1082C000BDE8F087A668FAE79C020020A002002023
:1082D0005F5F636D645F000070B50FA000F078FD14
:1082E00014480468144D286884420FD2062213A152
:1082F0002068F7F7E6FF28B920686268811D11A0A1
:1083000000F066FD0C3428688442EFD310A000F022
:108310005FFD002070BD000052542D5468726561ED
:1083200064207368656C6C20636F6D6D616E64733F
:108330003A0A00009C020020A00200205F5F636DEB
:10834000645F0000252D313673202D2025730A002F
:108350000A0000000120704770B515460023002474
:10836000002950D9002602E00670401C5B1C90F8E2
:1083700000C0BCF1200F02D0BCF1090F01D18B422B
:10838000F2D3082C0FD321A000F022FD002627A055
:1083900055F8261000F01CFD761CA642F7D322A04B
:1083A00000F016FD2FE08B422DD20278222A03D056
:1083B00045F82400641C1BE0401C5B1C45F82400AD
:1083C000641C08E05C2A04D14278222A01D1401CB6
:1083D0005B1C401C5B1C0278222A01D08B42F1D32B
:1083E0008B4210D20670401C5B1C0AE0401C5B1CD8
:1083F0000278202A03D0092A01D08B42F6D38B427F
:1084000001D28B42B3D3204670BD0000546F6F2061
:108410006D616E7920617267732021205765206F2E
:108420006E6C79205573653A0A00000025732000B0
:1084300070B504461F4D2868844204D2A1221E490B
:108440001EA000F075F96868844204D3A2221A497C
:1084500022A000F06DF9608820B1A32216492AA05D
:1084600000F066F960682968084484420FD04288A9
:108470006AB96A6890420AD0AA68824200D1AC60A8
:1084800042686260406801F10803621AC250A06845
:108490000844A0420CD04288002A09D1AA68A2420E
:1084A00000D1A86062684260401A6268083150508A
:1084B00070BD000004020020D9B000082872745F6B
:1084C00075696E74385F74202A296D656D203E3D94
:1084D00020686561705F7074720000002872745FBC
:1084E00075696E74385F74202A296D656D203C2093
:1084F0002872745F75696E74385F74202A29686504
:1085000061705F656E6400006D656D2D3E7573650D
:1085100064203D3D203000002DE9F04F86B0DDF8AD
:108520003CC0109D119CA846CDF800C014F0400F2F
:1085300002D0DFF848A101E0DFF844A114F0100FE9
:1085400001D024F0010414F0010F02D04FF03009E3
:1085500001E04FF02009002614F0020F0DD0002A90
:1085600002DA2D26524208E014F0040F01D02B2627
:1085700003E014F0080F00D020264FF0000C0DF19E
:10858000040B2AB930224FF0010C8DF804200DE0C5
:108590000A2B16D002F00F0712091AF807E06746F7
:1085A0000CF1010C0BF807E0002AF1D1AC4500DD1D
:1085B0006546009A521B14F0110F4FF020070DD0A2
:1085C0001CE0304FA7FB02E74FEAD70ECEF10007C1
:1085D00007EB870702EB47077246DEE716B1002A72
:1085E00000DD521E131EA2F1010207DD884200D2F7
:1085F0000770401C131EA2F10102F7DC26B188426D
:1086000000D20670521E401C14F0100F0CD1131E25
:10861000A2F1010208DD884201D280F80090401CDE
:10862000131EA2F10102F6DC6B1E65450FDD30243E
:10863000884200D20470401C1D465B1E6545F7DC75
:1086400005E0884202D21BF80C300370401CBCF1DC
:108650000003ACF1010C02DDB8F1000FF1D1531EA3
:10866000002A07DD884200D20770401C1A1EA3F1C1
:108670000103F7DC06B0BDE8F08F0000C0B00008D1
:10868000AFB00008CDCCCCCCF0B504460D462946A1
:10869000164618E08F1907EBD77C4FEA6C0034F8C8
:1086A00010709F4202D1471CB9B20BE034F8107031
:1086B0009F4202DA471CB9B204E034F810709F42BE
:1086C00000DD86B200BFB142E4DB481EA84202DAF8
:1086D0004FF0FF30F0BD481EFCE7000010B582B03F
:1086E00014200A21009101904FF480630022084970
:1086F00008A001F02AFB044624B9C522074908A0B6
:1087000000F016F802B02046BDE8104001F0C8BCE9
:108710007D8000086D61696E0000000052AE0008A7
:1087200074696420213D2052545F4E554C4C00002A
:1087300038B50C46002100910A49D1F804C0BCF1BB
:10874000000F04D001B02146BDE830406047134619
:108750000146224604A000F03BFB9DF800000028E3
:10876000FBD038BDFC0100202825732920617373DC
:10877000657274696F6E206661696C6564206174EE
:108780002066756E6374696F6E3A25732C206C6970
:108790006E65206E756D6265723A2564200A000070
:1087A00070B54843044600F025FB0546280003D079
:1087B0002246002100F085FC284670BD70B5054CAE
:1087C000054DAC4204D220688047241DAC42FAD348
:1087D00070BD000098B90008A0B9000870B5054C3C
:1087E000054DAC4204D220688047241DAC42FAD328
:1087F00070BD0000A0B90008A8B9000810B5F7F7CF
:1088000093FC04494A88521C4A80BDE81040F7F79F
:108810008FBC00006C02002010B5F7F785FC0B4CF4
:108820006188491E09B2618000290ADC002161804B
:10883000F7F77EFC6068002807D0BDE8104000F024
:1088400065BFBDE81040F7F773BC10BD6C02002097
:1088500070B50446002C6DD0F7F766FC054600F0B5
:1088600065FA48B1344935A000F0B2FA4FF40B7202
:1088700031493CA0FFF75CFF2846F7F759FC14F09C
:10888000030F05D040F22E222B4937A0FFF750FFEF
:10889000414D2868844202D36868844205D340F27F
:1088A0002F2225493D48FFF743FF2868844241D3E2
:1088B000686884423ED20C3C4FF0FF31384801F0EA
:1088C00055F8608818B12088B0F5F55F08D035A05C
:1088D00000F07EFA23886288214639A000F078FAF9
:1088E000608828B940F24E22134941A0FFF720FFCB
:1088F0002088B0F5F55F05D040F24F220E493FA029
:10890000FFF716FF002060804FF4F5502080A86824
:10891000844200D2AC6029686068611A401A2969F3
:10892000081A28612046FFF783FDBDE870401C4807
:1089300000F0D0BF70BD0000D1B0000846756E6376
:1089400074696F6E5B25735D207368616C6C206E5B
:108950006F74206265207573656420696E204953C9
:10896000520A00003000000028282872745F7562E7
:108970006173655F7429726D656D29202620285208
:10898000545F414C49474E5F53495A45202D203191
:108990002929203D3D2030000402002098B4000821
:1089A0002C060020746F206672656520612062616C
:1089B00064206461746120626C6F636B3A0A00002A
:1089C0006D656D3A203078253038782C20757365C8
:1089D0006420666C61673A2025642C206D616769AC
:1089E0006320636F64653A203078253034780A005C
:1089F0006D656D2D3E757365640000006D656D2DB0
:108A00003E6D61676963203D3D20484541505F4DA3
:108A10004147494300000000004870474C070020D0
:108A2000004870474C2F002010B5FBF797FEFDF76C
:108A300079F9FDF7ABF9FCF721F84FF47A71B0FB47
:108A4000F1F0FCF7BDFAFFF7B9FEFFF7E9FF0446C6
:108A5000FFF7E2FF2146BDE8104001F0B1B8000089
:108A600010B54FF0FF3407480068016811F0200F7F
:108A700002D04068C4B202E00A2001F07BFAE0B202
:108A800010BD00004C2F0020F8B5054600240D2035
:108A900000900E49002081F83C00284601F072F851
:108AA0000646300011D0285D0A2805D101231A4658
:108AB00069460648FCF7D8FC012329191A460348E1
:108AC000FCF7D2FC641CB442EDD3F8BD4C2F00205F
:108AD00070B505462C1D2E480168002903D0284694
:108AE0008847002852D02BA0E16B00F071F92DA02F
:108AF000216A00F06DF92FA0616A00F069F931A0D8
:108B0000A16A00F065F933A0E16A00F061F935A0CF
:108B1000216800F05DF937A0616800F059F939A0CB
:108B2000A16800F055F93BA0E16800F051F93DA0C3
:108B3000216900F04DF93FA0616900F049F941A0B9
:108B4000A16900F045F943A0E16900F041F945A0B1
:108B5000216B00F03DF947A0616B00F039F949A0A5
:108B6000A16B00F035F9287810F0040F08D001F05F
:108B70004FFA014647A000F02BF9FEF719FF02E07B
:108B80004CA000F025F9FEF7FBFBFEE770BD0000EE
:108B90008C0200207073723A203078253038780AC1
:108BA000000000007230303A203078253038780AE2
:108BB000000000007230313A203078253038780AD1
:108BC000000000007230323A203078253038780AC0
:108BD000000000007230333A203078253038780AAF
:108BE000000000007230343A203078253038780A9E
:108BF000000000007230353A203078253038780A8D
:108C0000000000007230363A203078253038780A7B
:108C1000000000007230373A203078253038780A6A
:108C2000000000007230383A203078253038780A59
:108C3000000000007230393A203078253038780A48
:108C4000000000007231303A203078253038780A40
:108C5000000000007231313A203078253038780A2F
:108C6000000000007231323A203078253038780A1E
:108C700000000000206C723A203078253038780AE5
:108C8000000000002070633A203078253038780AE0
:108C90000000000068617264206661756C74206F6A
:108CA0006E207468726561643A2025730D0A0D0A9E
:108CB0000000000068617264206661756C74206F4A
:108CC0006E2068616E646C65720D0A0D0A0000000A
:108CD00030B40546101D20F00700A0F140042046E6
:108CE0000022DFF828C040F822C0521C102AFAD314
:108CF0000162002141628162C16201634363856355
:108D00004FF08071C163204630BC7047EFBEADDECE
:108D100010B5F7F709FA04490A78521C0A70BDE841
:108D20001040F7F705BA0000F801002010B5F7F77A
:108D3000FBF903490C78F7F7FBF9204610BD00005A
:108D4000F801002010B5F7F7EFF904490A78521E30
:108D50000A70BDE81040F7F7EBB90000F8010020F9
:108D600070B504460D461646284601F0F9F916B1CD
:108D7000012E2BD108E005F11400616808606168DC
:108D800041606060046021E02068A04214D095F842
:108D90003510A0F1140292F83530994209D21432FC
:108DA00005F1140351680B605168596053601A60F3
:108DB00002E00068A042ECD1A04207D105F1140006
:108DC000616808606168416060600460002070BD97
:108DD0000FB408B503AB00937F210548029A01F058
:108DE0009BFD0348FFF750FE01B05DF814FB000047
:108DF000AC0500202DE9F0470446002C1CD0F7F705
:108E000093F90546FFF792FF48B15D495DA0FFF772
:108E1000DFFF4FF48C725A4964A0FFF789FC2846A3
:108E2000F7F786F9E01C20F00305614EF0688542F3
:108E300005D90020BDE8F0870020BDE8F0870C2DA3
:108E400000D20C254FF0FF315A4800F08FFDD6F8C4
:108E500008C03168ACEB0100F7687B1B83427CD90A
:108E60000C186288002A79D16268121A0C3AAA4258
:108E70007CD3626805F11803121A0C3A4FF001090D
:108E80004FF4F5589A4223D3421902F10C03CA1841
:108E9000A2F800804FF0000AA2F802A0D4F804A0C3
:108EA000C2F804A090606360A4F80290506807F1D3
:108EB0000C02904202D001F1080283503069324620
:108EC00028440C303061536983420DD250610BE06D
:108ED000A4F802906068621A801A32691044306106
:108EE0007269824200D27061A4F80080644514D196
:108EF000726802E040680844B060B06843880BB113
:108F00009042F7D1B168914207D0408828B14FF420
:108F1000C1721B4928A0FFF70BFC264800F0DAFCC1
:108F2000601971680C30884205D94FF4C372144936
:108F30002B48FFF7FDFB04F10C0010F0030F05D0E8
:108F400040F287120E492748FFF7F2FB14F0030F97
:108F500008D04FF4C4720A4901E00BE006E022A0F9
:108F6000FFF7E6FB04F10C00BDE8F0876068834280
:108F70003FF676AF0F4800F0ADFC0020BDE8F0876B
:108F8000F8B0000846756E6374696F6E5B25735D9B
:108F9000207368616C6C206E6F742062652075733D
:108FA000656420696E204953520A000030000000B9
:108FB000040200202C06002028286C6672656520BB
:108FC0003D3D20686561705F656E6429207C7C2072
:108FD00028216C667265652D3E75736564292900CC
:108FE000F4B400084CB4000828282872745F756235
:108FF0006173655F74296D656D29202620285254A0
:109000005F414C49474E5F53495A45202D20312935
:1090100029203D3D2030000010B40346102A2BD3F8
:1090200001F0030C03F003045CEA040C24D1D1F832
:1090300000C0C3F800C001F1040C191DDCF80030B9
:109040000B600CF10403D3F800C041F804CF03F126
:10905000040C0B1DDCF8001043F8041B0CF1040198
:10906000103A102AE3D2042A06D351F804CB43F86D
:1090700004CB121F042AF8D2521E05D311F801CBDB
:1090800003F801CB521EF9D210BC704703461846B4
:1090900081420DD201EB020C9C4509D99918521E50
:1090A00005D31CF8013D01F8013D521EF9D270476D
:1090B000521EFCD311F801CB03F801CB521EF9D29A
:1090C0007047034601F0FF0C042A1CD310F0030F75
:1090D00019D101464CEA0C2343EA0343102A0AD370
:1090E00041F8043B41F8043B41F8043B41F8043BA0
:1090F000103A102AF4D2042A04D341F8043B121F78
:10910000042AFAD20B46511E05D30CF0FF0203F8D5
:10911000012B491EFBD27047002300F001B800006C
:109120002DE9FF4F81B004468B469246002C05D1B5
:1091300040F2E9728E498FA0FFF7FAFA204600F05C
:1091400057FA062805D040F2EA7289498D48FFF7A0
:10915000EFFABBF1000F05D140F2EB7284498AA00F
:10916000FFF7E6FABAF1000F05D140F2EC72804940
:109170008AA0FFF7DDFA208C504504D205B04FF0ED
:10918000FF30BDE8F08F002700F042FF0646F6F7FB
:10919000CBFF0090256B0498284303D02800B946E4
:1091A00008D0A2E00098F6F7C3FF05B06FF0020008
:1091B000BDE8F08FC6F83090049830B1F6F7B4FFF0
:1091C000804600F025FF40B111E00098F6F7B0FFAF
:1091D00005B06FF00200BDE8F08F654972A0FFF79F
:1091E000F7FD40F6160262496EA0FFF7A1FAF6F706
:1091F0009BFF0546FFF79AFD48B15D4978A0FFF750
:10920000E7FD40F616025A4966A0FFF791FA284694
:10921000F6F78EFF4046F6F78BFF94F8098004F1CD
:109220003405304600F09CFFB8F1000F03D0B8F1D0
:10923000010F2BD108E006F1140069680860696825
:1092400041606860056021E02868A84214D096F863
:109250003520A0F1140191F835309A4209D2143129
:1092600006F114024B681A604B6853604A60116043
:1092700002E00068A842ECD1A84207D106F1140030
:109280006968086069684160686005600498002842
:109290000CDD01F05BF8074604AA002106F14C0042
:1092A00001F0EAF806F14C0001F012FA0098F6F726
:1092B0003FFF00F02BFA306B18B1306B05B0BDE802
:1092C000F08FF6F731FF00900498002809DD01F0D7
:1092D0003DF8C71B0498C01B0490002801DACDF8A4
:1092E0001090256B002D3FF465AF2868206300982F
:1092F000F6F71EFFC5F8009052465946281DFFF7A5
:109300008BFEF6F711FF0646E06A00B10560E562E4
:10931000A06A00B9A562A08C4FF6FF71884208D2FE
:10932000401CA08404F114000168814209D101208D
:1093300008E03046F6F7FCFE05B06FF00200BDE82D
:10934000F08F002030B13046F6F7F2FE05B0002075
:10935000BDE8F08FA1F1140000F014FE3046F6F7DE
:10936000E7FE00F0D3F905B00020BDE8F08F000063
:1093700079AF00086D7120213D2052545F4E554C4D
:109380004C00000004B40008627566666572202116
:109390003D2052545F4E554C4C00000073697A6575
:1093A00020213D203000000046756E6374696F6EA9
:1093B0005B25735D207368616C6C206E6F74206236
:1093C000652075736564206265666F7265207363DE
:1093D000686564756C65722073746172740A00004C
:1093E00046756E6374696F6E5B25735D207368618B
:1093F0006C6C206E6F7420626520757365642069E3
:109400006E204953520A00002DE9F04106460F46EE
:10941000F6F78AFE0446FFF789FC48B11E491FA0F3
:10942000FFF7D6FC4FF4C3721B4926A0FFF780F963
:109430002046F6F77DFE304600F0C8F805462DB907
:109440004FF4C572144920A0FFF772F9E868FFF7DE
:10945000D1FC0446E4B100212046EA68FFF731FE62
:1094600026720020607208223946204600F092FBE6
:10947000F6F75AFE291D04F10C020B685A600B68BE
:1094800013600A605160F6F753FE2046BDE8F08194
:109490000020BDE8F08100002DB1000846756E6324
:1094A00074696F6E5B25735D207368616C6C206EF0
:1094B0006F74206265207573656420696E2049535E
:1094C000520A000030000000696E666F726D6174B0
:1094D000696F6E20213D2052545F4E554C4C000068
:1094E00010B50446002C05D14FF4DD72114912A0CD
:1094F000FFF71EF9207A10F0800F05D040F2BB1262
:109500000C4912A0FFF714F900202072F6F70CFEA8
:1095100004F10C010B684A685A604B680A681A60CB
:1095200049600960F6F704FE2046BDE81040FFF7E9
:109530008FB9000040B100086F626A656374202132
:109540003D2052545F4E554C4C00000021286F6264
:109550006A6563742D3E7479706520262052545FCD
:109560004F626A6563745F436C6173735F537461C8
:10957000746963290000000010B50446002C05D171
:109580004FF4B3720B490CA0FFF7D2F80020207201
:10959000F6F7CAFD014604F10C00036842685A6000
:1095A000436802681A6040600060BDE810400846E9
:1095B000F6F7BEBD1CB100086F626A6563742021B6
:1095C0003D2052545F4E554C4C0000000021074A8C
:1095D00002EB01131B78834202D102EB01107047AA
:1095E000491C0529F4DB0020704700001C02002004
:1095F00010B50446002C05D140F2EF12034904A037
:10960000FFF796F8207A20F0800010BD6BB10008BB
:109610006F626A65637420213D2052545F4E554C41
:109620004C0000002DE9F04705468846914640462B
:10963000FFF7CCFF0646300005D140F2331219493E
:1096400019A0FFF775F8FFF7D9F87468371DBC4209
:109650000DD0A4F10C0038B1A84205D140F243125C
:10966000104917A0FFF764F82468BC42F1D1FFF756
:10967000D3F848F08000287208224946284600F0B6
:1096800089FAF6F751FD0246301D05F10C01036819
:10969000596003680B6001604860BDE8F047104600
:1096A000F6F746BD0DB10008696E666F726D6174A4
:1096B000696F6E20213D2052545F4E554C4C000086
:1096C0006F626A20213D206F626A6563740000004A
:1096D00010B50446002C05D14FF4EE72054906A0E2
:1096E000FFF726F8207A10F0800F01D0012010BD7E
:1096F000002010BD51B100086F626A6563742021BB
:109700003D2052545F4E554C4C00000070B5F6F7AA
:109710000BFD0546134C6088A8B9A068FCF742FE13
:10972000421E114850F83200A0F1140163689942BA
:1097300009D0227061600D48007848B11C3103F1F6
:109740001C00F6F7F8FC2846BDE87040F6F7F0BCC0
:109750001C3103F11C00F6F7EEFC2846BDE8704012
:10976000F6F7E6BC6C0200204C060020F801002051
:1097700010B50446002C05D140F21712124913A06F
:10978000FEF7D6FFF6F7D0FC024694F8340020F03E
:109790000F0040F0010084F8340094F835001049BF
:1097A00001EBC00104F114004B6818604B68436082
:1097B000486001600B48A16B836819438160BDE874
:1097C00010401046F6F7B4BC8DB10008746872659D
:1097D000616420213D2052545F4E554C4C000000E6
:1097E0004C0600206C02002010B50446002C05D168
:1097F00040F24512134914A0FEF79AFFF6F794FCC5
:10980000024604F114010B68486858604B68086808
:1098100018604960096094F83500104901EBC000F8
:109820000168814201D1012000E0002028B10C48EC
:10983000A16B836823EA01018160BDE810401046F6
:10984000F6F776BCA7B100087468726561642021E0
:109850003D2052545F4E554C4C0000004C060020F9
:109860006C0200202DE9F04104460F4615461E46C5
:10987000002C04D1D2220D490DA0FEF759FFB5F5F9
:10988000803F04D3D32209490DA0FEF751FF3A4689
:1098900002212046FFF7C6FE04F11400406000607C
:1098A000A58366720020BDE8F08100007CAE000850
:1098B00073656D20213D2052545F4E554C4C000085
:1098C00076616C7565203C20307831303030305511
:1098D0000000000070B50446002C05D140F2B7121C
:1098E0001C491DA0FEF724FF2046FFF781FE022839
:1098F00005D04FF4DC7217491B48FEF719FF00250D
:10990000F6F712FC064604F114000168814201D109
:10991000012000E0002038B1A08B4FF6FF71884293
:109920000DD2401CA08304E0A1F1140000F02AFB3A
:1099300001253046F6F7FCFB012D06D007E0304646
:10994000F6F7F6FB6FF0020070BDFFF7DFFE0020B8
:1099500070BD0000BEAE000873656D20213D205231
:10996000545F4E554C4C0000BCB300082DE9F34148
:109970000446002C05D14FF4A672374937A0FEF7F4
:10998000D7FE2046FFF734FE022805D040F24D12E4
:1099900031493648FEF7CCFEF6F7C6FB0646A08BEB
:1099A00028B1401EA0833046F6F7C2FB50E0019874
:1099B00030B1F6F7B9FB054600F02AFB40B111E0E3
:1099C0003046F6F7B5FB6FF0010002B0BDE8F0815C
:1099D000214927A0FFF7FCF940F26D121E4932A081
:1099E000FEF7A6FEF6F7A0FB0746FFF79FF948B182
:1099F00019492EA0FFF7ECF940F26D1216492AA082
:109A0000FEF796FE3846F6F793FB2846F6F790FBEE
:109A100000F0FEFA054600202863627A294604F128
:109A20001400FFF79DF90198002809DD01AA002123
:109A300005F14C0000F020FD05F14C0000F048FE5F
:109A40003046F6F775FBFFF761FE286B0028BCD1A6
:109A500002B00020BDE8F081B2AE000873656D2051
:109A6000213D2052545F4E554C4C0000BCB30008C1
:109A700046756E6374696F6E5B25735D20736861F4
:109A80006C6C206E6F742062652075736564206253
:109A900065666F7265207363686564756C657220B6
:109AA00073746172740A00003000000046756E63C2
:109AB00074696F6E5B25735D207368616C6C206EDA
:109AC0006F74206265207573656420696E20495348
:109AD000520A000008B509A0FFF77AF90AA0FFF7BB
:109AE00077F912A0009005230122032112A0FFF7AD
:109AF0006FF9BDE8084018A0FFF76AB90A205C209A
:109B00007C202F0A000000002D205254202D202000
:109B1000202020546872656164204F706572617402
:109B2000696E672053797374656D0A004F63742002
:109B30002036203230323300202F207C205C202041
:109B400020202025642E25642E2564206275696CF2
:109B5000642025730A0000002032303036202D208A
:109B60003230323020436F707972696768742062D6
:109B7000792072742D746872656164207465616DFA
:109B80000A000000014600E0491C0A78002AFBD1C7
:109B9000081A7047002A09D0034611F801CB03F8D0
:109BA00001CBBCF1000F02D0521EF6D17047511EFE
:109BB000FCD0002203F8012B491EFBD170470000A6
:109BC0002DE9F04106460F46F01C20F0030427F073
:109BD0000305F6F7A9FA8046FFF7A8F840B11C493B
:109BE0001CA0FFF7F5F8D222194924A0FEF7A0FD2A
:109BF0004046F6F79DFA182D22D9A5F11800A0428B
:109C00001ED3281B1E4D1838E8602C604FF4F55207
:109C1000228000F10C0161600020A060608060681B
:109C200020446860028001224280416081600023FC
:109C300014A11648FFF716FE2868A860BDE8F08159
:109C40003A463146BDE8F04111A0FFF7C1B8000027
:109C5000E4B0000846756E6374696F6E5B25735DD2
:109C6000207368616C6C206E6F7420626520757360
:109C7000656420696E204953520A000030000000DC
:109C80000402002068656170000000002C060020BE
:109C90006D656D20696E69742C206572726F72201B
:109CA000626567696E2061646472657373203078E1
:109CB00025782C20616E6420656E64206164647276
:109CC00065737320307825780A0000000B4B4FF045
:109CD000000CA3F802C00020094A02EBC001496051
:109CE0000960401C2028F8DB1F201870C3F804C04E
:109CF000C3F808C003484060006070476C02002051
:109D00004C0600207802002010B5074CA068FCF734
:109D100049FB401E054951F8300014386060BDE829
:109D200010401C30F6F735BA6C0200204C060020BB
:109D30000020044A02EBC00149600960401C002871
:109D4000F8D070478402002070472DE9F04784B0B6
:109D500080460D9D0C9C894692461E464146012038
:109D6000FFF752FB0746380011D03046FFF742F8A4
:109D700088B1009053464A464146019603950294A5
:109D80003846FCF7DDFF04B03846BDE8F08704B084
:109D90000020BDE8F0873846FFF7A2FB04B00020A2
:109DA000BDE8F08770B515480468F6F7BDF90546BB
:109DB0002046FDF736F82046FFF716FD042084F80C
:109DC000340004F14C0000F0D9FB2046FFF780FC82
:109DD00001280FD00A4904F114000A6850600A688B
:109DE000026008604160FFF791FC2846BDE87040C2
:109DF000F6F79EB92046FFF7BFFBF4E7700200209C
:109E00007802002000F002F8FCE7000070B5F6F7D9
:109E10008BF90446FEF78AFF40B1194919A0FEF7F5
:109E2000D7FF9322164921A0FEF782FC2046F6F7C1
:109E30007FF91F4C17E0012100E00021D9B1216812
:109E4000A1F114060A68486850604A680868106002
:109E500049600960B06AFEF7FBFC3046FFF740FB43
:109E60002846F6F765F9F6F75FF9054610490868E0
:109E70008842E2D0DFE72846BDE87040F6F758B9DF
:109E800066AE000846756E6374696F6E5B25735D20
:109E9000207368616C6C206E6F742062652075732E
:109EA000656420696E204953520A000030000000AA
:109EB0007802002000B585B02020C2001F21084B89
:109EC00000930192029103900023064A06A10848DC
:109ED00000F010F805B006485DF804EB00F0E0B8BB
:109EE000AC040020059E00087469646C65000000E5
:109EF0002C0400202DE9F04F85B00EAC8046F0CC4C
:109F0000894692469B46B8F1000F04D1E9220D49DB
:109F10000DA0FEF70DFC24B9EA220A490FA0FEF7B6
:109F200007FC4A4601214046FFF77CFB8DE8F00024
:109F30005B46524649464046FCF702FF05B0BDE885
:109F4000F08F0000D1B1000874687265616420214F
:109F50003D2052545F4E554C4C00000073746163B9
:109F60006B5F737461727420213D2052545F4E55B3
:109F70004C4C000010B500F0CFF9BDE8104000F0E7
:109F80004DB8000070B50446002C05D140F2F72210
:109F9000184919A0FEF7CCFB2046FFF729FB012842
:109FA00005D04FF43E7213491848FEF7C1FB94F8F0
:109FB000340000F00F00022802D04FF0FF3070BDD7
:109FC000F6F7B2F8054604F114010A6848685060D3
:109FD0004A68086810604960096004F14C0000F0AC
:109FE00035FC2846F6F7A4F82046FFF7C1FB002011
:109FF00070BD00005EB20008746872656164202163
:10A000003D2052545F4E554C4C00000038B50008BE
:10A0100001480068704700007002002031B5F6F773
:10A0200083F80546164804682CB940F2FB1215491E
:10A0300015A0FEF77DFB2046FFF7DAFA012805D0D0
:10A040004FF4FE720F491548FEF772FB204600F0F0
:10A0500087F86A46002104F14C0000F00DFA04F183
:10A060004C0000F035FB2846F6F762F8FFF74EFB90
:10A07000206B10F1020F01D100202063002038BDB9
:10A080007002002014B200087468726561642021B7
:10A090003D2052545F4E554C4C00000038B500082E
:10A0A00010B50446002C05D140F20D12174918A036
:10A0B000FEF73EFB94F8340010F00F0F05D04FF47C
:10A0C0008772124917A0FEF733FB2046FFF790FA7C
:10A0D000012805D040F20F120C492048FEF728FB5A
:10A0E00094F8360084F83500012101FA00F0A063ED
:10A0F000022084F834002046FFF744FFFFF788FF72
:10A1000008B1FFF703FB002010BD0000E0B100081C
:10A1100074687265616420213D2052545F4E554C35
:10A120004C000000287468726561642D3E73746190
:10A130007420262052545F5448524541445F535482
:10A1400041545F4D41534B29203D3D2052545F54B3
:10A1500048524541445F494E4954000038B5000813
:10A1600070B50446002C05D140F2CD22174918A045
:10A17000FEF7DEFA2046FFF73BFA012805D040F251
:10A18000CE2212491748FEF7D3FA94F8340000F0B3
:10A190000F00012802D04FF0FF3070BDF5F7C4FF6B
:10A1A00005462046FFF720FB94F8340020F00F000E
:10A1B00040F0020084F8340004F14C0000F046FB4B
:10A1C0002846F5F7B5FF002070BD00004CB200082E
:10A1D00074687265616420213D2052545F4E554C75
:10A1E0004C00000038B5000810B50446002C05D11D
:10A1F00040F22332174918A0FEF79AFA94F8340077
:10A2000000F00F00022805D04FF44972114917A041
:10A21000FEF78EFA2046FFF7EBF9012805D040F251
:10A2200025320C492048FEF783FA6FF001002063C5
:10A2300004F114010A68486850604A6808681060B0
:10A24000496009602046FFF793FABDE81040FFF728
:10A250005DBA00006FB20008746872656164202105
:10A260003D2052545F4E554C4C00000028746872DB
:10A270006561642D3E7374617420262052545F54CE
:10A2800048524541445F535441545F4D41534B291B
:10A29000203D3D2052545F5448524541445F535540
:10A2A0005350454E4400000038B5000810B5F5F78E
:10A2B0003BFF1749096891F8342002F00F02012A88
:10A2C00021D1D1F814C08B699C451CD001F1140236
:10A2D000CCF80430D2F804C01368CCF800305260D7
:10A2E000126091F835200B4B143103EBC202536816
:10A2F000196053684B6051600A60F5F719FFFFF76A
:10A3000005FA002010BDF5F713FF002010BD000076
:10A31000700200204C060020002802DA4FF0FF30C7
:10A3200070474FF47A7190FBF1F24A4390FBF1F3DE
:10A3300001FB130000EB4003C3EBC0104B1E03EB0B
:10A34000C00090FBF1F01044704700000148006825
:10A3500070470000F401002010B509480168491C4D
:10A360000160FFF755FE816C491E816419B9416C8B
:10A370008164FFF79BFFBDE8104000F003B80000C8
:10A38000F40100202DE9F04182B068460190009070
:10A39000FFF7DCFF8046F5F7C7FE07463548016842
:10A3A000814201D1012000E0002000285CD1314D24
:10A3B0006FF000462868A0F11404A06AA8EB000022
:10A3C000B04251D22246002002EBC0011431D1F834
:10A3D00000C04B68CCF80430D1F804C00B68CCF84E
:10A3E000003049600960401C0128EDDB607A10F004
:10A3F000020F02D120F001006072694604F11400DE
:10A40000009A5060009A026000904160E169206A01
:10A410008847FFF79BFF804668460099814201D13B
:10A42000012000E00020B0B904F114000268416886
:10A43000516042680168116040600060607A10F00D
:10A44000020F08D010F0010F05D020F0010060725B
:10A45000204600F03DF907480168814201D1012002
:10A4600000E000200028A5D03846F5F761FE02B0D4
:10A47000BDE8F0818402002070B504460E46154602
:10A48000002C05D140F2D9121A491BA0FEF750F951
:10A490002046FFF7ADF80A2805D04FF4ED721549B4
:10A4A0001AA0FEF745F9F5F73FFE052E1DD2DFE8AD
:10A4B00006F00603090E1300616A296015E0296899
:10A4C000616212E0617A21F0020161720DE0617A4D
:10A4D00041F00201617208E0617A11F0010F02D0CF
:10A4E0000121296001E000212960F5F721FE00200B
:10A4F00070BD0000CCB2000874696D657220213D0A
:10A500002052545F4E554C4C0000000072745F6F37
:10A51000626A6563745F6765745F74797065282625
:10A5200074696D65722D3E706172656E7429203D8F
:10A530003D2052545F4F626A6563745F436C617380
:10A54000735F54696D6572002DE9F8430E46089CEF
:10A550001746984601460A20FEF756FF0546280092
:10A5600008D043463A4631460094FCF741FC284661
:10A57000BDE8F8830020BDE8F883000070B504460C
:10A58000002C04D1DD221D491DA0FEF7D1F8204684
:10A59000FFF72EF80A2804D0DE2218491DA0FEF786
:10A5A000C7F82046FFF794F820B9DF22134928A006
:10A5B000FEF7BEF8F5F7B8FD03462046002200EB93
:10A5C000C20114310D68D1F804C0C5F804C04D684B
:10A5D000D1F800C0C5F800C049600960521C012ACA
:10A5E000EDDB607A20F0010060721846F5F7A0FDFF
:10A5F0002046FEF7C1FF002070BD00008FB20008AA
:10A6000074696D657220213D2052545F4E554C4C4B
:10A610000000000072745F6F626A6563745F676553
:10A62000745F74797065282674696D65722D3E704B
:10A630006172656E7429203D3D2052545F4F626AFD
:10A640006563745F436C6173735F54696D65720019
:10A6500072745F6F626A6563745F69735F73797345
:10A6600074656D6F626A656374282674696D6572BE
:10A670002D3E706172656E74290000002DE9F8436B
:10A680000546089E099C894617469846002D04D128
:10A69000C922094909A0FEF74BF84A460A21284673
:10A6A000FEF7C0FF33464246394628460094FCF781
:10A6B0009FFBBDE8F883000081B2000874696D65F6
:10A6C0007220213D2052545F4E554C4C000000003A
:10A6D0002DE9F8430446002C05D140F241123B49D4
:10A6E0003BA0FEF725F82046FEF782FF0A2805D09A
:10A6F0004FF4A17235493BA0FEF71AF8F5F714FDA7
:10A7000005462246002002EBC0011431D1F800C0FA
:10A710004B68CCF80430D1F804C00B68CCF800309A
:10A7200049600960401C0128EDDB607A20F00100DF
:10A730006072606A6FF00046B04205D340F2511279
:10A74000224937A0FDF7F4FFFFF700FE616A0844D5
:10A75000A062DFF8F080CDF800800021EC4608EB25
:10A76000C1035CF821205F68BA420ED05CF821205A
:10A770001268A2EBC1035B69834202D01B1AB34289
:10A7800003D34CF82120BA42F0D129B15CF8212042
:10A7900008324B1C4CF82320491C0029DFD02A48E2
:10A7A0000168491C0160009804F1140102685160BD
:10A7B00002680A6001604860607A40F001006072DF
:10A7C0002846F5F7B5FC0020BDE8F883AFB20008D5
:10A7D00074696D657220213D2052545F4E554C4C7A
:10A7E0000000000072745F6F626A6563745F676582
:10A7F000745F74797065282674696D65722D3E707A
:10A800006172656E7429203D3D2052545F4F626A2B
:10A810006563745F436C6173735F54696D65720047
:10A8200074696D65722D3E696E69745F7469636BDE
:10A83000203C2052545F5449434B5F4D4158202FD8
:10A8400020320000840200208002002070B50446FF
:10A85000002C05D14FF4DB721A491BA0FDF768FFED
:10A860002046FEF7C5FE0A2805D040F2B71215496A
:10A870001AA0FDF75DFF607A10F0010F1FD0F5F709
:10A8800053FC03462046002200EBC20114310D6840
:10A89000D1F804C0C5F804C04D68D1F800C0C5F8AF
:10A8A00000C049600960521C012AEDDB607A20F08B
:10A8B000010060721846F5F73BFC002070BD4FF0B8
:10A8C000FF3070BDBEB2000874696D657220213D15
:10A8D0002052545F4E554C4C0000000072745F6F64
:10A8E000626A6563745F6765745F74797065282652
:10A8F00074696D65722D3E706172656E7429203DBC
:10A900003D2052545F4F626A6563745F436C6173AC
:10A91000735F54696D6572002DE9FF4F83B0064681
:10A920000F461446F5193046854203D24FF0FF35E5
:10A93000C6F1FF372178002900F05C816FF02F0904
:10A940004FF020084FF0250A2178252905D0A8428C
:10A9500000D20170401C00F048B90021641C23782B
:10A960002D2B1ED02B2B1FD0202B20D0232B21D0E2
:10A97000302B22D04FF0FF3294F800C0ACF1300CF5
:10A98000BCF10A0F1CD20022234602EB82021B7884
:10A9900009EB4202641C1A442378303B0A2BF3D3A0
:10A9A0001AE041F01001D9E741F00401D6E741F087
:10A9B0000801D3E741F02001D0E741F00101CDE7E4
:10A9C0002A2B09D1641C069B53F8042B0693002AFA
:10A9D00002DA524241F010014FF0FF3B23782E2B58
:10A9E00022D1641C2378A3F1300CBCF10A0F0FD2E2
:10A9F0004FF0000B23460BEB8B0C1B7809EB4C0C38
:10AA0000641C03EB0C0B2378303B0A2BF2D306E0DB
:10AA10002A2B04D1641C069B53F804BB0693BBF19C
:10AA2000000F01DA4FF0000B4FF0000E2378682B77
:10AA300001D06C2B01D19E46641C0A2394F800C0FF
:10AA4000BCF16F0F7ED011DCBCF1630F27D006DCA8
:10AA5000BCF1250F77D0BCF1580F13D1ABE0BCF19E
:10AA6000640F71D0BCF1690F0CD1A8E0BCF1700F7C
:10AA70006BD0BCF1730F35D0BCF1750F66D0BCF153
:10AA8000780F7BD0A84201D280F800A0401C21782A
:10AA9000002974D0A84200D20170401CA5E011F03A
:10AAA000100F0AD1521E002A07DDA84201D280F8F9
:10AAB0000080401C521E002AF7DC069911F8043B66
:10AAC0000691D9B2A84200D20170401C511E002943
:10AAD00053DDA84201D280F80080401C491E0029A5
:10AAE000F7DC82E0DDF818C05CF8043BCDF818C054
:10AAF00003B952A34FF0000C01E00CF1010C944596
:10AB000004D013F80CE0BEF1000FF6D1BBF1000F3A
:10AB100002DDDC4500DDDC4611F0100F0CD11146E2
:10AB2000521E614508DDA84201D280F80080401C19
:10AB30001146521E6145F6DC0021BCF1000F10DD0C
:10AB4000A84204E035E02EE039E019E039E003D214
:10AB500093F800B080F800B0401C5B1C491C6145B4
:10AB6000EEDB511E624540DDA84201D280F8008034
:10AB7000401C0A46491E6245F6DC36E01DE03FE017
:10AB8000B2F1FF3F02D1082241F00101CDF804B03B
:10AB9000029106990092102351F8042B0691294640
:10ABA000FDF7BAFC21E0A84201D280F800A0401CC9
:10ABB0001BE0082305E041F04001102301E041F0D3
:10ABC0000201BEF16C0F1DD0BEF1680F21D0DDF87F
:10ABD00018E05EF804CBCDF818E000920291CDF8B1
:10ABE00004B062462946FDF797FC641C21780029D1
:10ABF0007FF4AAAEEFB10021A84218D2017018E08C
:10AC0000641EF2E7DDF818E05EF804CBCDF818E03A
:10AC1000E3E7DDF818C03CF804EBCDF818C01FFAE4
:10AC20008EFC11F0020FD8D00FFA8CFCD5E705F896
:10AC3000011C07B0801BBDE8F08F0000284E554C6A
:10AC40004C2900000020704700207047002070470A
:10AC50000020704710B5F5F767FAFDF7E5FEFEF73F
:10AC600039FFFFF765F8FFF731F8FDF737FDFFF71C
:10AC70006BF8FFF71FF9FFF747F8002010BD000041
:10AC800010B5044609A0FEF7A3F8FDF763FB012801
:10AC900002D12046FDF76CFAFCF774F92246014612
:10ACA000BDE8104002A0FEF793B800000A000000C3
:10ACB000257325730000000070B505462C68AC4272
:10ACC0000DD0A4F1140106A0FEF782F82068A84276
:10ACD00002D004A0FEF77CF82468AC42F1D170BD2C
:10ACE000257300002F000000024601E0521C491CA1
:10ACF00092F800C0BCF1000F03D00B780BB19C455B
:10AD0000F4D0101A704730B5002306E004780D78AF
:10AD100005700C70401C491C5B1C9342F6D330BD7F
:10AD200010B50B48094901604FF4E1314160002141
:10AD30008160C16001610C2242618161C161FAF7E9
:10AD400081FA00B1FEE7002010BD0000003801408C
:10AD50004C2F002010B51BA0FEF73AF81D4C21889F
:10AD60001DA0FEF735F8208810F0010F02D020A0BA
:10AD7000FEF72EF8208810F0020F02D01FA0FEF779
:10AD800027F8208810F0040F02D01FA0FEF720F84B
:10AD9000208810F0080F02D01DA0FEF719F82088B7
:10ADA00010F4807F02D01CA0FEF712F8208810F467
:10ADB000007F02D01BA0FEF70BF8BDE8104004A0F6
:10ADC000FEF706B87573616765206661756C743A45
:10ADD0000A0000002AED00E05343425F434653520D
:10ADE0005F554653523A30782530325820000000E3
:10ADF000554E444546494E5354522000494E5653F1
:10AE00005441544520000000494E56504320000054
:10AE10004E4F435020000000554E414C49474E458F
:10AE20004420000044495642595A45524F200000E0
:10AE300010B5FEF74FFE002010BD0000000000001E
:10AE400000000102030406070809000000000102D7
:10AE5000030472745F6170706C69636174696F6E12
:10AE60005F696E69740072745F7468726561645FB3
:10AE700069646C655F6578637574650072745F738F
:10AE8000656D5F696E69740072745F73656D5F6490
:10AE900065746163680072745F73656D5F6372658A
:10AEA0006174650072745F73656D5F64656C657471
:10AEB000650072745F73656D5F74616B65007274B9
:10AEC0005F73656D5F72656C656173650072745F59
:10AED00073656D5F636F6E74726F6C0072745F6523
:10AEE00076656E745F696E69740072745F6576650D
:10AEF0006E745F6465746163680072745F65766523
:10AF00006E745F6372656174650072745F65766507
:10AF10006E745F64656C6574650072745F657665F8
:10AF20006E745F73656E640072745F6576656E74CF
:10AF30005F726563760072745F6576656E745F63D9
:10AF40006F6E74726F6C0072745F6D715F696E69A1
:10AF5000740072745F6D715F646574616368007220
:10AF6000745F6D715F6372656174650072745F6DAB
:10AF7000715F64656C6574650072745F6D715F7399
:10AF8000656E645F776169740072745F6D715F757F
:10AF90007267656E740072745F6D715F726563765F
:10AFA0000072745F6D715F636F6E74726F6C00001E
:10AFB0000001000200010003000100020001000482
:10AFC0000001000200010003000100020001000571
:10AFD0000001000200010003000100020001000462
:10AFE0000001000200010003000100020001000650
:10AFF0000001000200010003000100020001000442
:10B000000001000200010003000100020001000530
:10B010000001000200010003000100020001000421
:10B02000000100020001000300010002000100070E
:10B030000001000200010003000100020001000401
:10B0400000010002000100030001000200010005F0
:10B0500000010002000100030001000200010004E1
:10B0600000010002000100030001000200010006CF
:10B0700000010002000100030001000200010004C1
:10B0800000010002000100030001000200010005B0
:10B0900000010002000100030001000200010004A1
:10B0A0000001000200010003000100020001003065
:10B0B000313233343536373839616263646566005E
:10B0C00030313233343536373839414243444546DE
:10B0D0000072745F6672656500706C75675F686F9B
:10B0E0006C65730072745F73797374656D5F686506
:10B0F00061705F696E69740072745F6D616C6C6F12
:10B10000630072745F7265616C6C6F630072745F70
:10B110006F626A6563745F696E69740072745F6FF1
:10B12000626A6563745F6465746163680072745F0A
:10B130006F626A6563745F616C6C6F6361746500F4
:10B1400072745F6F626A6563745F64656C65746571
:10B150000072745F6F626A6563745F69735F7379AD
:10B160007374656D6F626A6563740072745F6F6299
:10B170006A6563745F6765745F7479706500727483
:10B180005F6F626A6563745F66696E640072745FA4
:10B190007363686564756C655F696E736572745F0F
:10B1A0007468726561640072745F73636865647566
:10B1B0006C655F72656D6F76655F746872656164FA
:10B1C000005F72745F7468726561645F696E697450
:10B1D0000072745F7468726561645F696E6974009F
:10B1E00072745F7468726561645F737461727475A0
:10B1F000700072745F7468726561645F6465746125
:10B2000063680072745F7468726561645F64656C22
:10B210006574650072745F7468726561645F736CF5
:10B220006565700072745F7468726561645F6465FF
:10B230006C61795F756E74696C0072745F746872AA
:10B240006561645F636F6E74726F6C0072745F74BB
:10B2500068726561645F73757370656E64007274A3
:10B260005F7468726561645F726573756D650072A5
:10B27000745F7468726561645F74696D656F75741D
:10B280000072745F74696D65725F696E69740072D3
:10B29000745F74696D65725F646574616368007280
:10B2A000745F74696D65725F64656C657465007266
:10B2B000745F74696D65725F737461727400727427
:10B2C0005F74696D65725F73746F700072745F7420
:10B2D000696D65725F636F6E74726F6C005F6D7322
:10B2E000685F657865635F636D640066696E736847
:10B2F0005F6765745F70726F6D70745F6D6F6465AA
:10B300000066696E73685F7365745F70726F6D70ED
:10B31000745F6D6F64650066696E73685F736574F2
:10B320005F6563686F0066696E73685F6765745F09
:10B330006563686F0000000004FA97999999D93FF6
:10B34000AF788E1DC571CC3F9FC678D0099AC33F98
:10B35000935555555555E53F599322942449D23F6D
:10B36000DE03CB966446C73F44523EDF12F1C23F34
:10B3700000000000000000002F2A2A2A2A2A2A2A78
:10B380002A2A2A2A2A2A2A2A2A2A2A2A2A2A2A2A1D
:10B390002A2A2A2A2A2A2A2A2A2A2A2A2A2A2A2A0D
:10B3A0002A2A2A2A2A2A2A2A2A2A2A2A2A2A2A2AFD
:10B3B0002A2A2A2A2A2A2F0D0A0D0A0072745F6F80
:10B3C000626A6563745F6765745F74797065282667
:10B3D00073656D2D3E706172656E742E706172655D
:10B3E0006E7429203D3D2052545F4F626A6563743C
:10B3F0005F436C6173735F53656D6170686F7265F5
:10B400000000000072745F6F626A6563745F676555
:10B41000745F7479706528266D712D3E7061726558
:10B420006E742E706172656E7429203D3D205254F9
:10B430005F4F626A6563745F436C6173735F4D65F0
:10B440007373616765517565756500002872745F77
:10B4500075626173655F7429282872745F75696EFF
:10B4600074385F74202A296D656D202B2053495A4A
:10B47000454F465F5354525543545F4D454D292027
:10B48000252052545F414C49474E5F53495A45204D
:10B490003D3D2030000000002872745F75696E74B5
:10B4A000385F74202A29726D656D203E3D20287218
:10B4B000745F75696E74385F74202A2968656170DD
:10B4C0005F707472202626202872745F75696E740E
:10B4D000385F74202A29726D656D203C20287274B3
:10B4E0005F75696E74385F74202A29686561705FC2
:10B4F000656E64002872745F75626173655F74299C
:10B500006D656D202B2053495A454F465F53545269
:10B510005543545F4D454D202B2073697A65203C7F
:10B520003D202872745F75626173655F7429686578
:10B5300061705F656E64000072745F6F626A65635C
:10B54000745F6765745F74797065282872745F6FC3
:10B55000626A6563745F7429746872656164292026
:10B560003D3D2052545F4F626A6563745F436C6176
:10B5700073735F546872656164000000252D2A2E84
:10B580007320707269202073746174757320202099
:10B5900020202073702020202020737461636B2092
:10B5A00073697A65206D61782075736564206C65B8
:10B5B0006674207469636B20206572726F720A0072
:10B5C0005F5F636D645F424D535F436D644F7065B1
:10B5D0006E445347004F70656E20445347005F5FD1
:10B5E000636D645F424D535F436D64436C6F73657D
:10B5F00044534700436C6F736520445347005F5FBB
:10B60000636D645F424D535F436D644F70656E437D
:10B610004847004F70656E20434847005F5F636D89
:10B62000645F424D535F436D64436C6F7365434881
:10B630004700436C6F736520434847005F5F636D4D
:10B64000645F424D535F436D644F70656E42616C41
:10B65000616E6365004F70656E2042616C616E6360
:10B6600065005F5F636D645F424D535F436D64438C
:10B670006C6F736542616C616E636500436C6F73E0
:10B68000652042616C616E6365005F5F636D645F3E
:10B69000424D535F436D644C6F61644465746563F0
:10B6A00074004C6F616420446574656374005F5F6F
:10B6B000636D645F424D535F436D644F70656E49C7
:10B6C0006E666F004F70656E20496E666F20507217
:10B6D000696E7466005F5F636D645F424D535F43E4
:10B6E0006D64436C6F7365496E666F00436C6F7376
:10B6F0006520496E666F205072696E7466006C69D1
:10B7000073745F6D656D006C697374206D656D6F2A
:10B71000727920757361676520696E666F726D61FD
:10B7200074696F6E0068656C6C6F00736179206876
:10B73000656C6C6F20776F726C64007665727369EC
:10B740006F6E0073686F772052542D546872656174
:10B75000642076657273696F6E20696E666F726DB4
:10B760006174696F6E005F5F636D645F76657273AD
:10B77000696F6E0073686F772052542D546872653C
:10B7800061642076657273696F6E20696E666F7290
:10B790006D6174696F6E006C6973745F7468726553
:10B7A0006164006C69737420746872656164005F21
:10B7B0005F636D645F6C6973745F74687265616404
:10B7C000006C69737420746872656164006C6973DD
:10B7D000745F73656D006C6973742073656D61705F
:10B7E000686F726520696E2073797374656D005F90
:10B7F0005F636D645F6C6973745F73656D006C6922
:10B8000073742073656D6170686F726520696E2056
:10B8100073797374656D006C6973745F6576656EBA
:10B8200074006C697374206576656E7420696E208F
:10B8300073797374656D005F5F636D645F6C6973CA
:10B84000745F6576656E74006C69737420657665E7
:10B850006E7420696E2073797374656D006C697302
:10B86000745F6D73677175657565006C69737420BD
:10B870006D65737361676520717565756520696EA7
:10B880002073797374656D005F5F636D645F6C69CD
:10B8900073745F6D73677175657565006C6973743A
:10B8A000206D6573736167652071756575652069C5
:10B8B0006E2073797374656D006C6973745F74695D
:10B8C0006D6572006C6973742074696D65722069AE
:10B8D0006E2073797374656D005F5F636D645F6C78
:10B8E0006973745F74696D6572006C697374207438
:10B8F000696D657220696E2073797374656D006C73
:10B90000697374006C69737420616C6C2073796D59
:10B91000626F6C20696E2073797374656D005F5F70
:10B92000636D645F68656C700052542D5468726575
:10B930006164207368656C6C2068656C702E005FB4
:10B940005F636D645F7073004C6973742074687218
:10B950006561647320696E207468652073797374FF
:10B96000656D2E005F5F636D645F66726565005391
:10B97000686F7720746865206D656D6F72792075CA
:10B980007361676520696E207468652073797374CC
:10B99000656D2E0051AC000849AC000821AD0008CF
:10B9A00045AC0008497000084DAC0008C0B500085F
:10B9B000D5B500089D130008DEB50008F4B50008F1
:10B9C000F5120008FEB5000813B600089113000830
:10B9D0001CB6000832B60008E91200083CB60008A0
:10B9E00055B600088513000862B600087CB600084A
:10B9F000DD1200088AB60008A2B600080D13000880
:10BA0000AEB60008C4B60008A9130008D5B60008F1
:10BA1000ECB6000801130008FEB6000807B70008DE
:10BA20008176000825B700082BB7000805740008C8
:10BA30003BB7000843B7000831AE000866B70008FE
:10BA400074B7000831AE000897B70008A3B7000824
:10BA5000B1790008AFB70008C1B70008B179000894
:10BA6000CDB70008D6B7000855780008EFB7000832
:10BA7000FEB700085578000817B8000822B800087B
:10BA80008D74000837B8000848B800088D740008A5
:10BA90005DB800086BB80008ED76000888B80008AB
:10BAA0009CB80008ED760008B9B80008C4B80008D2
:10BAB000917B0008D9B80008EAB80008917B00081B
:10BAC000FFB8000804B90008257400081EB9000872
:10BAD00029B90008D98200083FB9000848B9000810
:10BAE0003F6F000864B900086FB90008356F00089F
:10BAF00010BB000800000020B8020000940B0008F2
:10BB000098BC0008B802002060310000FC63000807
:10BB100041321042011B24F4091901F1180CB81E1E
:10BB20004540666686408FC28508380A46409A9925
:10BB30004940CDCC0C042009010105013C3C013CED
:10BB4000238C421A7004690823A0C11A20046908D2
:10BB5000013229608140CBD20CED0C060D1D0D3257
:10BB60000D460D590D6A0D790D880D950DA10DAC81
:10BB70000DB60DC00DC80DD00DD70DDD0DE30DE9CF
:10BB80000DEE0DF30DF70DFB0DFF0D020E060E0968
:10BB90000E0C0E0F0E120E150E180E1B0E1F0E227F
:10BBA0000E250E280E2C0E300E340E380E3C0E4094
:10BBB0000E450E4A0E4F0E540E5A0E5F0E650E6B5A
:10BBC0000E720E780E7F0E860E8D0E950E9D0EA4B3
:10BBD0000EAC0EB50EBD0EC60ECF0ED80EE10EEA9F
:10BBE0000EF30EFD0E070F110F1B0F250F2F0F3930
:10BBF0000F440F4F0F590F640F6F0F7A0F850F917E
:10BC00000F9C0FA80FB30FBF0FCB0FD70FE30FF091
:10BC10000FFC0F09101610231031103E104C105954
:10BC2000104F803F6666663FE4000C15CC3D333311
:10BC30005340CDCC4C3D1E8008010301010105019C
:10BC4000540C0140122033400313696F140811563D
:10BC50001B0801041A150481CD0AD7A33B47072C02
:10BC600002030405060729741320022A20043280E7
:10BC700032021A300C2904322032041A400C2904F2
:10BC8000291032061A500C29042A3C84311A600CFF
:08BC90002904024F2C00000002
:04000005080000ED02
:00000001FF
